{
  "contractName": "BCFactory",
  "abi": [
    {
      "constant": true,
      "inputs": [],
      "name": "MAX_OWNER_COMPANIES",
      "outputs": [
        {
          "name": "",
          "type": "uint8"
        }
      ],
      "payable": false,
      "stateMutability": "view",
      "type": "function",
      "signature": "0x4642e0ba"
    },
    {
      "constant": false,
      "inputs": [
        {
          "name": "self",
          "type": "BCFactory.Data storage"
        },
        {
          "name": "_companyName",
          "type": "string"
        },
        {
          "name": "_phone",
          "type": "string"
        },
        {
          "name": "_url",
          "type": "string"
        },
        {
          "name": "_did",
          "type": "string"
        },
        {
          "name": "_uPortAddress",
          "type": "address"
        }
      ],
      "name": "createBCCompany",
      "outputs": [
        {
          "name": "",
          "type": "BC"
        }
      ],
      "payable": false,
      "stateMutability": "nonpayable",
      "type": "function",
      "signature": "0xfa39e9e0"
    },
    {
      "constant": true,
      "inputs": [
        {
          "name": "self",
          "type": "BCFactory.Data storage"
        }
      ],
      "name": "nextCompanyAvailablePositionUtil",
      "outputs": [
        {
          "name": "",
          "type": "uint8"
        }
      ],
      "payable": false,
      "stateMutability": "view",
      "type": "function",
      "signature": "0xc89f385d"
    }
  ],
  "bytecode": "0x611549610030600b82828239805160001a6073146000811461002057610022565bfe5b5030600052607381538281f3fe730000000000000000000000000000000000000000301460806040526004361061006e576000357c0100000000000000000000000000000000000000000000000000000000900463ffffffff1680634642e0ba14610073578063c89f385d14610097578063fa39e9e0146100df575b600080fd5b61007b6102ce565b604051808260ff1660ff16815260200191505060405180910390f35b6100c3600480360360208110156100ad57600080fd5b81019080803590602001909291905050506102d3565b604051808260ff1660ff16815260200191505060405180910390f35b8180156100eb57600080fd5b5061028c600480360360c081101561010257600080fd5b81019080803590602001909291908035906020019064010000000081111561012957600080fd5b82018360208201111561013b57600080fd5b8035906020019184600183028401116401000000008311171561015d57600080fd5b90919293919293908035906020019064010000000081111561017e57600080fd5b82018360208201111561019057600080fd5b803590602001918460018302840111640100000000831117156101b257600080fd5b9091929391929390803590602001906401000000008111156101d357600080fd5b8201836020820111156101e557600080fd5b8035906020019184600183028401116401000000008311171561020757600080fd5b90919293919293908035906020019064010000000081111561022857600080fd5b82018360208201111561023a57600080fd5b8035906020019184600183028401116401000000008311171561025c57600080fd5b9091929391929390803573ffffffffffffffffffffffffffffffffffffffff1690602001909291905050506102e5565b604051808273ffffffffffffffffffffffffffffffffffffffff1673ffffffffffffffffffffffffffffffffffffffff16815260200191505060405180910390f35b600381565b60006102de8261059f565b9050919050565b6000806102f18c61059f565b90508060ff16600360ff16111515610397576040517f08c379a00000000000000000000000000000000000000000000000000000000081526004018080602001828103825260408152602001807f596f752063616e2774206372656174652061206e657720636f6d70616e792e2081526020017f4d6178206c696d6974207265616368656420283520636f6d70616e696573292e81525060400191505060405180910390fd5b6000338c8c8c8c8c8c8c8c8c6103ab6106e0565b808b73ffffffffffffffffffffffffffffffffffffffff1673ffffffffffffffffffffffffffffffffffffffff168152602001806020018060200180602001806020018673ffffffffffffffffffffffffffffffffffffffff1673ffffffffffffffffffffffffffffffffffffffff16815260200185810385528e8e82818152602001925080828437600081840152601f19601f82011690508083019250505085810384528c8c82818152602001925080828437600081840152601f19601f82011690508083019250505085810383528a8a82818152602001925080828437600081840152601f19601f8201169050808301925050508581038252888882818152602001925080828437600081840152601f19601f8201169050808301925050509e505050505050505050505050505050604051809103906000f0801580156104f8573d6000803e3d6000fd5b509050808d60000160003373ffffffffffffffffffffffffffffffffffffffff1673ffffffffffffffffffffffffffffffffffffffff1681526020019081526020016000208360ff1660038110151561054d57fe5b0160006101000a81548173ffffffffffffffffffffffffffffffffffffffff021916908373ffffffffffffffffffffffffffffffffffffffff16021790555080925050509a9950505050505050505050565b60006105a96106f0565b8260000160003373ffffffffffffffffffffffffffffffffffffffff1673ffffffffffffffffffffffffffffffffffffffff168152602001908152602001600020600380602002604051908101604052809291908260038015610657576020028201915b8160009054906101000a900473ffffffffffffffffffffffffffffffffffffffff1673ffffffffffffffffffffffffffffffffffffffff168152602001906001019080831161060d575b5050505050905060008090505b600360ff168160ff1610156106d457600073ffffffffffffffffffffffffffffffffffffffff16828260ff1660038110151561069c57fe5b602002015173ffffffffffffffffffffffffffffffffffffffff1614156106c75780925050506106db565b8080600101915050610664565b5060039150505b919050565b604051610e0a8061071483390190565b60606040519081016040528060039060208202803883398082019150509050509056fe60806040523480156200001157600080fd5b5060405162000e0a38038062000e0a833981018060405260c08110156200003757600080fd5b810190808051906020019092919080516401000000008111156200005a57600080fd5b828101905060208101848111156200007157600080fd5b81518560018202830111640100000000821117156200008f57600080fd5b50509291906020018051640100000000811115620000ac57600080fd5b82810190506020810184811115620000c357600080fd5b8151856001820283011164010000000082111715620000e157600080fd5b50509291906020018051640100000000811115620000fe57600080fd5b828101905060208101848111156200011557600080fd5b81518560018202830111640100000000821117156200013357600080fd5b505092919060200180516401000000008111156200015057600080fd5b828101905060208101848111156200016757600080fd5b81518560018202830111640100000000821117156200018557600080fd5b505092919060200180519060200190929190505050336000806101000a81548173ffffffffffffffffffffffffffffffffffffffff021916908373ffffffffffffffffffffffffffffffffffffffff160217905550856000806101000a81548173ffffffffffffffffffffffffffffffffffffffff021916908373ffffffffffffffffffffffffffffffffffffffff16021790555084600290805190602001906200023292919062000343565b5083600390805190602001906200024b92919062000343565b5082600490805190602001906200026492919062000343565b5081600590805190602001906200027d92919062000343565b5080600660006101000a81548173ffffffffffffffffffffffffffffffffffffffff021916908373ffffffffffffffffffffffffffffffffffffffff16021790555060018060008060009054906101000a900473ffffffffffffffffffffffffffffffffffffffff1673ffffffffffffffffffffffffffffffffffffffff1673ffffffffffffffffffffffffffffffffffffffff16815260200190815260200160002060006101000a81548160ff021916908315150217905550505050505050620003f2565b828054600181600116156101000203166002900490600052602060002090601f016020900481019282601f106200038657805160ff1916838001178555620003b7565b82800160010185558215620003b7579182015b82811115620003b657825182559160200191906001019062000399565b5b509050620003c69190620003ca565b5090565b620003ef91905b80821115620003eb576000816000905550600101620003d1565b5090565b90565b610a0880620004026000396000f3fe60806040526004361061008e576000357c0100000000000000000000000000000000000000000000000000000000900463ffffffff16806306fdde0314610093578063286805081461012357806340cb34621461013a578063429b62e51461018b5780634abf825d146101f45780635600f04f1461028f5780638da5cb5b1461031f5780639284f49714610376575b600080fd5b34801561009f57600080fd5b506100a8610406565b6040518080602001828103825283818151815260200191508051906020019080838360005b838110156100e85780820151818401526020810190506100cd565b50505050905090810190601f1680156101155780820380516001836020036101000a031916815260200191505b509250505060405180910390f35b34801561012f57600080fd5b506101386104a4565b005b34801561014657600080fd5b506101896004803603602081101561015d57600080fd5b81019080803573ffffffffffffffffffffffffffffffffffffffff1690602001909291905050506106df565b005b34801561019757600080fd5b506101da600480360360208110156101ae57600080fd5b81019080803573ffffffffffffffffffffffffffffffffffffffff16906020019092919050505061080e565b604051808215151515815260200191505060405180910390f35b34801561020057600080fd5b5061024d6004803603604081101561021757600080fd5b81019080803573ffffffffffffffffffffffffffffffffffffffff1690602001909291908035906020019092919050505061082e565b604051808273ffffffffffffffffffffffffffffffffffffffff1673ffffffffffffffffffffffffffffffffffffffff16815260200191505060405180910390f35b34801561029b57600080fd5b506102a461087b565b6040518080602001828103825283818151815260200191508051906020019080838360005b838110156102e45780820151818401526020810190506102c9565b50505050905090810190601f1680156103115780820380516001836020036101000a031916815260200191505b509250505060405180910390f35b34801561032b57600080fd5b50610334610919565b604051808273ffffffffffffffffffffffffffffffffffffffff1673ffffffffffffffffffffffffffffffffffffffff16815260200191505060405180910390f35b34801561038257600080fd5b5061038b61093e565b6040518080602001828103825283818151815260200191508051906020019080838360005b838110156103cb5780820151818401526020810190506103b0565b50505050905090810190601f1680156103f85780820380516001836020036101000a031916815260200191505b509250505060405180910390f35b60028054600181600116156101000203166002900480601f01602080910402602001604051908101604052809291908181526020018280546001816001161561010002031660029004801561049c5780601f106104715761010080835404028352916020019161049c565b820191906000526020600020905b81548152906001019060200180831161047f57829003601f168201915b505050505081565b338073ffffffffffffffffffffffffffffffffffffffff166000809054906101000a900473ffffffffffffffffffffffffffffffffffffffff1673ffffffffffffffffffffffffffffffffffffffff1614151561058f576040517f08c379a00000000000000000000000000000000000000000000000000000000081526004018080602001828103825260228152602001807f4163636573732064656e6965642e20436f6d70616e79206f776e6572206f6e6c81526020017f792e00000000000000000000000000000000000000000000000000000000000081525060400191505060405180910390fd5b3373ffffffffffffffffffffffffffffffffffffffff16ff5b8154815290600101906020018083116105a857829003601f1682019150508481038352868181546001816001161561010002031660029004815260200191508054600181600116156101000203166002900480156106475780601f1061061c57610100808354040283529160200191610647565b820191906000526020600020905b81548152906001019060200180831161062a57829003601f168201915b50508481038252858181546001816001161561010002031660029004815260200191508054600181600116156101000203166002900480156106ca5780601f1061069f576101008083540402835291602001916106ca565b820191906000526020600020905b8154815290600101906020018083116106ad57829003601f168201915b5050965050505050505060405180910390a250565b338073ffffffffffffffffffffffffffffffffffffffff166000809054906101000a900473ffffffffffffffffffffffffffffffffffffffff1673ffffffffffffffffffffffffffffffffffffffff161415156107ca576040517f08c379a00000000000000000000000000000000000000000000000000000000081526004018080602001828103825260228152602001807f4163636573732064656e6965642e20436f6d70616e79206f776e6572206f6e6c81526020017f792e00000000000000000000000000000000000000000000000000000000000081525060400191505060405180910390fd5b816000806101000a81548173ffffffffffffffffffffffffffffffffffffffff021916908373ffffffffffffffffffffffffffffffffffffffff1602179055505050565b60016020528060005260406000206000915054906101000a900460ff1681565b60076020528160005260406000208181548110151561084957fe5b906000526020600020016000915091509054906101000a900473ffffffffffffffffffffffffffffffffffffffff1681565b60048054600181600116156101000203166002900480601f0160208091040260200160405190810160405280929190818152602001828054600181600116156101000203166002900480156109115780601f106108e657610100808354040283529160200191610911565b820191906000526020600020905b8154815290600101906020018083116108f457829003601f168201915b505050505081565b6000809054906101000a900473ffffffffffffffffffffffffffffffffffffffff1681565b60038054600181600116156101000203166002900480601f0160208091040260200160405190810160405280929190818152602001828054600181600116156101000203166002900480156109d45780601f106109a9576101008083540402835291602001916109d4565b820191906000526020600020905b8154815290600101906020018083116109b757829003601f168201915b50505050508156fea165627a7a7230582072b671713b5d3949534e4c772ea3b9dbc5279dfb47a19f101c5367b437796be90029a165627a7a72305820acf8f1e3aba78476c7438dc9d659b86d84cc553bf0d5d5a3f25286bd5b86966f0029",
  "source": "pragma solidity ^0.5.0;\n\nimport \"./BC.sol\";\n\nlibrary BCFactory {\n   \n    // Constants\n    uint8 constant public MAX_OWNER_COMPANIES = 3; // 1 owner could register up to 3 companies.\n    address constant internal EMPTY_ADDRESS = address(0); \n   \n    struct Data {\n        mapping (address => address[MAX_OWNER_COMPANIES]) companies; // (owner => companies[3]) \n    }\n\n\n    function createBCCompany(Data storage self, string calldata _companyName, string calldata _phone, string calldata _url, string calldata _did, address _uPortAddress)\n        external \n        returns (BC)\n    { \n        uint8 position = nextCompanyAvailablePosition(self);\n        require(MAX_OWNER_COMPANIES > position, \"You can't create a new company. Max limit reached (5 companies).\");\n        BC newCompany = new BC(msg.sender, _companyName, _phone, _url, _did, _uPortAddress);\n        self.companies[msg.sender][position] = address(newCompany);\n        return newCompany;\n    }\n    \n\n    \n    function nextCompanyAvailablePosition(Data storage self)\n        internal\n        view\n        returns (uint8)\n    {\n        address[MAX_OWNER_COMPANIES] memory ownerCompanies = self.companies[msg.sender];\n        for (uint8 i = 0; i < MAX_OWNER_COMPANIES; i++) {\n            if (ownerCompanies[i] == EMPTY_ADDRESS){\n                return i; // first position available.\n            }\n        }\n       return MAX_OWNER_COMPANIES; // No empty spot available. \n    }\n\n    function nextCompanyAvailablePositionUtil(Data storage self)\n        external\n        view\n        returns (uint8)\n    {\n        return nextCompanyAvailablePosition(self);\n    }\n}",
  "sourcePath": "/home/juan/consensys/otherrepos/final-project-Juan-cc/kmp/contracts/BCFactory.sol",
  "compiler": {
    "name": "solc",
    "version": "0.5.0+commit.1d4f565a.Emscripten.clang"
  },
  "schemaVersion": "3.0.0",
  "updatedAt": "2019-01-23T07:54:50.221Z",
  "devdoc": {
    "methods": {}
  },
  "userdoc": {
    "methods": {}
  }
}