{
  "contractName": "CompanyFactory",
  "abi": [
    {
      "constant": true,
      "inputs": [],
      "name": "MAX_COMPANY_TOKENS",
      "outputs": [
        {
          "name": "",
          "type": "uint8"
        }
      ],
      "payable": false,
      "stateMutability": "view",
      "type": "function",
      "signature": "0x38abeb43"
    },
    {
      "constant": true,
      "inputs": [],
      "name": "MAX_OWNER_COMPANIES",
      "outputs": [
        {
          "name": "",
          "type": "uint8"
        }
      ],
      "payable": false,
      "stateMutability": "view",
      "type": "function",
      "signature": "0x4642e0ba"
    },
    {
      "constant": true,
      "inputs": [],
      "name": "EMPTY_ADDRESS",
      "outputs": [
        {
          "name": "",
          "type": "address"
        }
      ],
      "payable": false,
      "stateMutability": "view",
      "type": "function",
      "signature": "0xeb39c3af"
    },
    {
      "constant": false,
      "inputs": [
        {
          "name": "self",
          "type": "CompanyFactory.Data storage"
        },
        {
          "name": "_companyName",
          "type": "string"
        },
        {
          "name": "_phone",
          "type": "string"
        },
        {
          "name": "_url",
          "type": "string"
        },
        {
          "name": "_did",
          "type": "string"
        },
        {
          "name": "_uPortAddress",
          "type": "address"
        }
      ],
      "name": "createBCCompany",
      "outputs": [
        {
          "name": "",
          "type": "BC"
        }
      ],
      "payable": false,
      "stateMutability": "nonpayable",
      "type": "function",
      "signature": "0xc5929931"
    },
    {
      "constant": true,
      "inputs": [
        {
          "name": "self",
          "type": "CompanyFactory.Data storage"
        }
      ],
      "name": "nextCompanyAvailablePositionUtil",
      "outputs": [
        {
          "name": "",
          "type": "uint8"
        }
      ],
      "payable": false,
      "stateMutability": "view",
      "type": "function",
      "signature": "0xebbe09fd"
    }
  ],
  "bytecode": "0x610f3c610030600b82828239805160001a6073146000811461002057610022565bfe5b5030600052607381538281f3fe73000000000000000000000000000000000000000030146080604052600436106100835763ffffffff7c010000000000000000000000000000000000000000000000000000000060003504166338abeb4381146100885780634642e0ba146100a6578063c5929931146100ae578063eb39c3af14610267578063ebbe09fd1461026f575b600080fd5b61009061028c565b6040805160ff9092168252519081900360200190f35b610090610291565b8180156100ba57600080fd5b5061023e600480360360c08110156100d157600080fd5b813591908101906040810160208201356401000000008111156100f357600080fd5b82018360208201111561010557600080fd5b8035906020019184600183028401116401000000008311171561012757600080fd5b91939092909160208101903564010000000081111561014557600080fd5b82018360208201111561015757600080fd5b8035906020019184600183028401116401000000008311171561017957600080fd5b91939092909160208101903564010000000081111561019757600080fd5b8201836020820111156101a957600080fd5b803590602001918460018302840111640100000000831117156101cb57600080fd5b9193909290916020810190356401000000008111156101e957600080fd5b8201836020820111156101fb57600080fd5b8035906020019184600183028401116401000000008311171561021d57600080fd5b91935091503573ffffffffffffffffffffffffffffffffffffffff16610296565b6040805173ffffffffffffffffffffffffffffffffffffffff9092168252519081900360200190f35b61023e6104ae565b6100906004803603602081101561028557600080fd5b50356104b3565b600581565b600381565b6000806102a28c6104c6565b905060ff811660031161033c57604080517f08c379a000000000000000000000000000000000000000000000000000000000815260206004820152602481018290527f596f752063616e2774206372656174652061206e657720636f6d70616e792e2060448201527f4d6178206c696d6974207265616368656420283520636f6d70616e696573292e606482015290519081900360840190fd5b6000338c8c8c8c8c8c8c8c8c610350610581565b73ffffffffffffffffffffffffffffffffffffffff808c168252821660a082015260c0602082018181529082018a905260408201606083016080840160e085018e8e80828437600083820152601f01601f191690910186810385528c815260200190508c8c80828437600083820152601f01601f191690910186810384528a815260200190508a8a80828437600083820152601f01601f191690910186810383528881526020019050888880828437600081840152601f19601f8201169050808301925050509e505050505050505050505050505050604051809103906000f080158015610442573d6000803e3d6000fd5b5033600090815260208f905260409020909150819060ff84166003811061046557fe5b01805473ffffffffffffffffffffffffffffffffffffffff191673ffffffffffffffffffffffffffffffffffffffff929092169190911790559c9b505050505050505050505050565b600081565b60006104be826104c6565b90505b919050565b60006104d0610591565b3360009081526020849052604090819020815160608101928390529160039082845b815473ffffffffffffffffffffffffffffffffffffffff1681526001909101906020018083116104f25750939450600093505050505b600360ff821610156105775760008260ff83166003811061054557fe5b602002015173ffffffffffffffffffffffffffffffffffffffff16141561056f5791506104c19050565b600101610528565b5060039392505050565b604051610960806105b183390190565b606060405190810160405280600390602082028038833950919291505056fe608060405234801561001057600080fd5b50604051610960380380610960833981018060405260c081101561003357600080fd5b81516020830180519193928301929164010000000081111561005457600080fd5b8201602081018481111561006757600080fd5b815164010000000081118282018710171561008157600080fd5b5050929190602001805164010000000081111561009d57600080fd5b820160208101848111156100b057600080fd5b81516401000000008111828201871017156100ca57600080fd5b505092919060200180516401000000008111156100e657600080fd5b820160208101848111156100f957600080fd5b815164010000000081118282018710171561011357600080fd5b5050929190602001805164010000000081111561012f57600080fd5b8201602081018481111561014257600080fd5b815164010000000081118282018710171561015c57600080fd5b50506020918201516000805433600160a060020a03199182161716600160a060020a038b161790558751919450925061019b916002919088019061021f565b5083516101af90600390602087019061021f565b5082516101c390600490602086019061021f565b5081516101d790600590602085019061021f565b5060068054600160a060020a031916600160a060020a03928316179055600080549091168152600160208190526040909120805460ff19169091179055506102ba9350505050565b828054600181600116156101000203166002900490600052602060002090601f016020900481019282601f1061026057805160ff191683800117855561028d565b8280016001018555821561028d579182015b8281111561028d578251825591602001919060010190610272565b5061029992915061029d565b5090565b6102b791905b8082111561029957600081556001016102a3565b90565b610697806102c96000396000f3fe60806040526004361061008d5763ffffffff7c010000000000000000000000000000000000000000000000000000000060003504166306fdde038114610092578063286805081461011c57806340cb346214610133578063429b62e5146101665780634abf825d146101ad5780635600f04f146102025780638da5cb5b146102175780639284f4971461022c575b600080fd5b34801561009e57600080fd5b506100a7610241565b6040805160208082528351818301528351919283929083019185019080838360005b838110156100e15781810151838201526020016100c9565b50505050905090810190601f16801561010e5780820380516001836020036101000a031916815260200191505b509250505060405180910390f35b34801561012857600080fd5b506101316102cc565b005b34801561013f57600080fd5b506101316004803603602081101561015657600080fd5b5035600160a060020a0316610489565b34801561017257600080fd5b506101996004803603602081101561018957600080fd5b5035600160a060020a031661055a565b604080519115158252519081900360200190f35b3480156101b957600080fd5b506101e6600480360360408110156101d057600080fd5b50600160a060020a03813516906020013561056f565b60408051600160a060020a039092168252519081900360200190f35b34801561020e57600080fd5b506100a76105a6565b34801561022357600080fd5b506101e6610601565b34801561023857600080fd5b506100a7610610565b6002805460408051602060018416156101000260001901909316849004601f810184900484028201840190925281815292918301828280156102c45780601f10610299576101008083540402835291602001916102c4565b820191906000526020600020905b8154815290600101906020018083116102a757829003601f168201915b505050505081565b6000543390600160a060020a0316811461036d57604080517f08c379a000000000000000000000000000000000000000000000000000000000815260206004820152602260248201527f4163636573732064656e6965642e20436f6d70616e79206f776e6572206f6e6c60448201527f792e000000000000000000000000000000000000000000000000000000000000606482015290519081900360840190fd5b33ff5b81548152906001019060200180831161037057829003601f1682019150508481038352865460026000196101006001841615020190911604808252602090910190879080156104005780601f106103d557610100808354040283529160200191610400565b820191906000526020600020905b8154815290600101906020018083116103e357829003601f168201915b50508481038252855460026000196101006001841615020190911604808252602090910190869080156104745780601f1061044957610100808354040283529160200191610474565b820191906000526020600020905b81548152906001019060200180831161045757829003601f168201915b5050965050505050505060405180910390a250565b6000543390600160a060020a0316811461052a57604080517f08c379a000000000000000000000000000000000000000000000000000000000815260206004820152602260248201527f4163636573732064656e6965642e20436f6d70616e79206f776e6572206f6e6c60448201527f792e000000000000000000000000000000000000000000000000000000000000606482015290519081900360840190fd5b506000805473ffffffffffffffffffffffffffffffffffffffff1916600160a060020a0392909216919091179055565b60016020526000908152604090205460ff1681565b60076020528160005260406000208181548110151561058a57fe5b600091825260209091200154600160a060020a03169150829050565b6004805460408051602060026001851615610100026000190190941693909304601f810184900484028201840190925281815292918301828280156102c45780601f10610299576101008083540402835291602001916102c4565b600054600160a060020a031681565b6003805460408051602060026001851615610100026000190190941693909304601f810184900484028201840190925281815292918301828280156102c45780601f10610299576101008083540402835291602001916102c456fea165627a7a72305820b086b58f0ba00cdf6afec7f7ff89cb4df67028249dade3ccbd3fed256dbe06e90029a165627a7a72305820359341c8998cb2ee6aa08ed0a7da81fb6cf548928fd8e8df863c83b87274f8d40029",
  "source": "pragma solidity ^0.5.0;\n\nimport \"./BC.sol\";\nimport \"./KMToken.sol\";\n\nlibrary CompanyFactory {\n   \n    // Constants\n    uint8 constant public MAX_OWNER_COMPANIES = 3; // 1 owner could register up to 3 companies.\n    uint8 constant public MAX_COMPANY_TOKENS = 5; // 1 company could register up to 5 tokens.\n    address constant public EMPTY_ADDRESS = address(0); \n   \n    struct Data {\n        mapping (address => address[MAX_OWNER_COMPANIES]) companies; // (owner => companies[3]) \n        mapping (address => address[MAX_COMPANY_TOKENS]) tokens; // (company => token[5]))\n\n    }\n\n\n    function createBCCompany(Data storage self, string calldata _companyName, string calldata _phone, string calldata _url, string calldata _did, address _uPortAddress)\n        external \n        returns (BC)\n    { \n        uint8 position = nextCompanyAvailablePosition(self);\n        require(MAX_OWNER_COMPANIES > position, \"You can't create a new company. Max limit reached (5 companies).\");\n        BC newCompany = new BC(msg.sender, _companyName, _phone, _url, _did, _uPortAddress);\n        self.companies[msg.sender][position] = address(newCompany);\n        return newCompany;\n    }\n    \n\n    \n    function nextCompanyAvailablePosition(Data storage self)\n        internal\n        view\n        returns (uint8)\n    {\n        address[MAX_OWNER_COMPANIES] memory ownerCompanies = self.companies[msg.sender];\n        for (uint8 i = 0; i < MAX_OWNER_COMPANIES; i++) {\n            if (ownerCompanies[i] == EMPTY_ADDRESS){\n                return i; // first position available.\n            }\n        }\n       return MAX_OWNER_COMPANIES; // No empty spot available. \n    }\n\n    function nextCompanyAvailablePositionUtil(Data storage self)\n        external\n        view\n        returns (uint8)\n    {\n        return nextCompanyAvailablePosition(self);\n    }\n\n   \n\n    \n}",
  "sourcePath": "/home/juan/consensys/otherrepos/final-project-Juan-cc/kmp/contracts/CompanyFactory.sol",
  "compiler": {
    "name": "solc",
    "version": "0.5.0+commit.1d4f565a.Emscripten.clang"
  },
  "schemaVersion": "3.0.0",
  "updatedAt": "2019-01-23T23:03:54.879Z",
  "devdoc": {
    "methods": {}
  },
  "userdoc": {
    "methods": {}
  }
}