{
  "contractName": "CompanyFactory",
  "abi": [
    {
      "constant": true,
      "inputs": [],
      "name": "MAX_COMPANY_TOKENS",
      "outputs": [
        {
          "name": "",
          "type": "uint8"
        }
      ],
      "payable": false,
      "stateMutability": "view",
      "type": "function",
      "signature": "0x38abeb43"
    },
    {
      "constant": true,
      "inputs": [],
      "name": "MAX_OWNER_COMPANIES",
      "outputs": [
        {
          "name": "",
          "type": "uint8"
        }
      ],
      "payable": false,
      "stateMutability": "view",
      "type": "function",
      "signature": "0x4642e0ba"
    },
    {
      "constant": true,
      "inputs": [],
      "name": "EMPTY_ADDRESS",
      "outputs": [
        {
          "name": "",
          "type": "address"
        }
      ],
      "payable": false,
      "stateMutability": "view",
      "type": "function",
      "signature": "0xeb39c3af"
    },
    {
      "constant": false,
      "inputs": [
        {
          "name": "self",
          "type": "CompanyFactory.Data storage"
        },
        {
          "name": "_companyName",
          "type": "string"
        },
        {
          "name": "_phone",
          "type": "string"
        },
        {
          "name": "_url",
          "type": "string"
        },
        {
          "name": "_did",
          "type": "string"
        },
        {
          "name": "_uPortAddress",
          "type": "address"
        }
      ],
      "name": "createBCCompany",
      "outputs": [
        {
          "name": "",
          "type": "BC"
        }
      ],
      "payable": false,
      "stateMutability": "nonpayable",
      "type": "function",
      "signature": "0xc5929931"
    },
    {
      "constant": true,
      "inputs": [
        {
          "name": "self",
          "type": "CompanyFactory.Data storage"
        }
      ],
      "name": "nextCompanyAvailablePositionUtil",
      "outputs": [
        {
          "name": "",
          "type": "uint8"
        }
      ],
      "payable": false,
      "stateMutability": "view",
      "type": "function",
      "signature": "0xebbe09fd"
    },
    {
      "constant": true,
      "inputs": [
        {
          "name": "self",
          "type": "CompanyFactory.Data storage"
        },
        {
          "name": "aCompany",
          "type": "address"
        }
      ],
      "name": "findBCownerUtil",
      "outputs": [
        {
          "name": "",
          "type": "address"
        }
      ],
      "payable": false,
      "stateMutability": "view",
      "type": "function",
      "signature": "0x57549df3"
    }
  ],
  "bytecode": "0x6118bb610030600b82828239805160001a6073146000811461002057610022565bfe5b5030600052607381538281f3fe730000000000000000000000000000000000000000301460806040526004361062000096576000357c0100000000000000000000000000000000000000000000000000000000900463ffffffff16806338abeb43146200009b5780634642e0ba14620000c157806357549df314620000e7578063c59299311462000178578063eb39c3af1462000377578063ebbe09fd14620003c3575b600080fd5b620000a56200040e565b604051808260ff1660ff16815260200191505060405180910390f35b620000cb62000413565b604051808260ff1660ff16815260200191505060405180910390f35b6200013660048036036040811015620000ff57600080fd5b8101908080359060200190929190803573ffffffffffffffffffffffffffffffffffffffff16906020019092919050505062000418565b604051808273ffffffffffffffffffffffffffffffffffffffff1673ffffffffffffffffffffffffffffffffffffffff16815260200191505060405180910390f35b8180156200018557600080fd5b5062000335600480360360c08110156200019e57600080fd5b810190808035906020019092919080359060200190640100000000811115620001c657600080fd5b820183602082011115620001d957600080fd5b80359060200191846001830284011164010000000083111715620001fc57600080fd5b9091929391929390803590602001906401000000008111156200021e57600080fd5b8201836020820111156200023157600080fd5b803590602001918460018302840111640100000000831117156200025457600080fd5b9091929391929390803590602001906401000000008111156200027657600080fd5b8201836020820111156200028957600080fd5b80359060200191846001830284011164010000000083111715620002ac57600080fd5b909192939192939080359060200190640100000000811115620002ce57600080fd5b820183602082011115620002e157600080fd5b803590602001918460018302840111640100000000831117156200030457600080fd5b9091929391929390803573ffffffffffffffffffffffffffffffffffffffff1690602001909291905050506200042e565b604051808273ffffffffffffffffffffffffffffffffffffffff1673ffffffffffffffffffffffffffffffffffffffff16815260200191505060405180910390f35b62000381620006ef565b604051808273ffffffffffffffffffffffffffffffffffffffff1673ffffffffffffffffffffffffffffffffffffffff16815260200191505060405180910390f35b620003f260048036036020811015620003db57600080fd5b8101908080359060200190929190505050620006f4565b604051808260ff1660ff16815260200191505060405180910390f35b600581565b600381565b600062000426838362000708565b905092915050565b6000806200043c8c62000907565b90508060ff16600360ff16111515620004e3576040517f08c379a00000000000000000000000000000000000000000000000000000000081526004018080602001828103825260408152602001807f596f752063616e2774206372656174652061206e657720636f6d70616e792e2081526020017f4d6178206c696d6974207265616368656420283520636f6d70616e696573292e81525060400191505060405180910390fd5b6000338c8c8c8c8c8c8c8c8c620004f962000a51565b808b73ffffffffffffffffffffffffffffffffffffffff1673ffffffffffffffffffffffffffffffffffffffff168152602001806020018060200180602001806020018673ffffffffffffffffffffffffffffffffffffffff1673ffffffffffffffffffffffffffffffffffffffff16815260200185810385528e8e82818152602001925080828437600081840152601f19601f82011690508083019250505085810384528c8c82818152602001925080828437600081840152601f19601f82011690508083019250505085810383528a8a82818152602001925080828437600081840152601f19601f8201169050808301925050508581038252888882818152602001925080828437600081840152601f19601f8201169050808301925050509e505050505050505050505050505050604051809103906000f08015801562000647573d6000803e3d6000fd5b509050808d60000160003373ffffffffffffffffffffffffffffffffffffffff1673ffffffffffffffffffffffffffffffffffffffff1681526020019081526020016000208360ff166003811015156200069d57fe5b0160006101000a81548173ffffffffffffffffffffffffffffffffffffffff021916908373ffffffffffffffffffffffffffffffffffffffff16021790555080925050509a9950505050505050505050565b600081565b6000620007018262000907565b9050919050565b60006200071462000a62565b8360000160003373ffffffffffffffffffffffffffffffffffffffff1673ffffffffffffffffffffffffffffffffffffffff168152602001908152602001600020600380602002604051908101604052809291908260038015620007c4576020028201915b8160009054906101000a900473ffffffffffffffffffffffffffffffffffffffff1673ffffffffffffffffffffffffffffffffffffffff168152602001906001019080831162000779575b5050505050905060008090505b600360ff168160ff161015620008fa578373ffffffffffffffffffffffffffffffffffffffff16828260ff166003811015156200080a57fe5b602002015173ffffffffffffffffffffffffffffffffffffffff161415620008ec57818160ff166003811015156200083e57fe5b602002015173ffffffffffffffffffffffffffffffffffffffff16638da5cb5b6040518163ffffffff167c010000000000000000000000000000000000000000000000000000000002815260040160206040518083038186803b158015620008a557600080fd5b505afa158015620008ba573d6000803e3d6000fd5b505050506040513d6020811015620008d157600080fd5b81019080805190602001909291905050509250505062000901565b8080600101915050620007d1565b5060009150505b92915050565b60006200091362000a62565b8260000160003373ffffffffffffffffffffffffffffffffffffffff1673ffffffffffffffffffffffffffffffffffffffff168152602001908152602001600020600380602002604051908101604052809291908260038015620009c3576020028201915b8160009054906101000a900473ffffffffffffffffffffffffffffffffffffffff1673ffffffffffffffffffffffffffffffffffffffff168152602001906001019080831162000978575b5050505050905060008090505b600360ff168160ff16101562000a4557600073ffffffffffffffffffffffffffffffffffffffff16828260ff1660038110151562000a0a57fe5b602002015173ffffffffffffffffffffffffffffffffffffffff16141562000a3757809250505062000a4c565b8080600101915050620009d0565b5060039150505b919050565b604051610e0a8062000a8683390190565b60606040519081016040528060039060208202803883398082019150509050509056fe60806040523480156200001157600080fd5b5060405162000e0a38038062000e0a833981018060405260c08110156200003757600080fd5b810190808051906020019092919080516401000000008111156200005a57600080fd5b828101905060208101848111156200007157600080fd5b81518560018202830111640100000000821117156200008f57600080fd5b50509291906020018051640100000000811115620000ac57600080fd5b82810190506020810184811115620000c357600080fd5b8151856001820283011164010000000082111715620000e157600080fd5b50509291906020018051640100000000811115620000fe57600080fd5b828101905060208101848111156200011557600080fd5b81518560018202830111640100000000821117156200013357600080fd5b505092919060200180516401000000008111156200015057600080fd5b828101905060208101848111156200016757600080fd5b81518560018202830111640100000000821117156200018557600080fd5b505092919060200180519060200190929190505050336000806101000a81548173ffffffffffffffffffffffffffffffffffffffff021916908373ffffffffffffffffffffffffffffffffffffffff160217905550856000806101000a81548173ffffffffffffffffffffffffffffffffffffffff021916908373ffffffffffffffffffffffffffffffffffffffff16021790555084600290805190602001906200023292919062000343565b5083600390805190602001906200024b92919062000343565b5082600490805190602001906200026492919062000343565b5081600590805190602001906200027d92919062000343565b5080600660006101000a81548173ffffffffffffffffffffffffffffffffffffffff021916908373ffffffffffffffffffffffffffffffffffffffff16021790555060018060008060009054906101000a900473ffffffffffffffffffffffffffffffffffffffff1673ffffffffffffffffffffffffffffffffffffffff1673ffffffffffffffffffffffffffffffffffffffff16815260200190815260200160002060006101000a81548160ff021916908315150217905550505050505050620003f2565b828054600181600116156101000203166002900490600052602060002090601f016020900481019282601f106200038657805160ff1916838001178555620003b7565b82800160010185558215620003b7579182015b82811115620003b657825182559160200191906001019062000399565b5b509050620003c69190620003ca565b5090565b620003ef91905b80821115620003eb576000816000905550600101620003d1565b5090565b90565b610a0880620004026000396000f3fe60806040526004361061008e576000357c0100000000000000000000000000000000000000000000000000000000900463ffffffff16806306fdde0314610093578063286805081461012357806340cb34621461013a578063429b62e51461018b5780634abf825d146101f45780635600f04f1461028f5780638da5cb5b1461031f5780639284f49714610376575b600080fd5b34801561009f57600080fd5b506100a8610406565b6040518080602001828103825283818151815260200191508051906020019080838360005b838110156100e85780820151818401526020810190506100cd565b50505050905090810190601f1680156101155780820380516001836020036101000a031916815260200191505b509250505060405180910390f35b34801561012f57600080fd5b506101386104a4565b005b34801561014657600080fd5b506101896004803603602081101561015d57600080fd5b81019080803573ffffffffffffffffffffffffffffffffffffffff1690602001909291905050506106df565b005b34801561019757600080fd5b506101da600480360360208110156101ae57600080fd5b81019080803573ffffffffffffffffffffffffffffffffffffffff16906020019092919050505061080e565b604051808215151515815260200191505060405180910390f35b34801561020057600080fd5b5061024d6004803603604081101561021757600080fd5b81019080803573ffffffffffffffffffffffffffffffffffffffff1690602001909291908035906020019092919050505061082e565b604051808273ffffffffffffffffffffffffffffffffffffffff1673ffffffffffffffffffffffffffffffffffffffff16815260200191505060405180910390f35b34801561029b57600080fd5b506102a461087b565b6040518080602001828103825283818151815260200191508051906020019080838360005b838110156102e45780820151818401526020810190506102c9565b50505050905090810190601f1680156103115780820380516001836020036101000a031916815260200191505b509250505060405180910390f35b34801561032b57600080fd5b50610334610919565b604051808273ffffffffffffffffffffffffffffffffffffffff1673ffffffffffffffffffffffffffffffffffffffff16815260200191505060405180910390f35b34801561038257600080fd5b5061038b61093e565b6040518080602001828103825283818151815260200191508051906020019080838360005b838110156103cb5780820151818401526020810190506103b0565b50505050905090810190601f1680156103f85780820380516001836020036101000a031916815260200191505b509250505060405180910390f35b60028054600181600116156101000203166002900480601f01602080910402602001604051908101604052809291908181526020018280546001816001161561010002031660029004801561049c5780601f106104715761010080835404028352916020019161049c565b820191906000526020600020905b81548152906001019060200180831161047f57829003601f168201915b505050505081565b338073ffffffffffffffffffffffffffffffffffffffff166000809054906101000a900473ffffffffffffffffffffffffffffffffffffffff1673ffffffffffffffffffffffffffffffffffffffff1614151561058f576040517f08c379a00000000000000000000000000000000000000000000000000000000081526004018080602001828103825260228152602001807f4163636573732064656e6965642e20436f6d70616e79206f776e6572206f6e6c81526020017f792e00000000000000000000000000000000000000000000000000000000000081525060400191505060405180910390fd5b3373ffffffffffffffffffffffffffffffffffffffff16ff5b8154815290600101906020018083116105a857829003601f1682019150508481038352868181546001816001161561010002031660029004815260200191508054600181600116156101000203166002900480156106475780601f1061061c57610100808354040283529160200191610647565b820191906000526020600020905b81548152906001019060200180831161062a57829003601f168201915b50508481038252858181546001816001161561010002031660029004815260200191508054600181600116156101000203166002900480156106ca5780601f1061069f576101008083540402835291602001916106ca565b820191906000526020600020905b8154815290600101906020018083116106ad57829003601f168201915b5050965050505050505060405180910390a250565b338073ffffffffffffffffffffffffffffffffffffffff166000809054906101000a900473ffffffffffffffffffffffffffffffffffffffff1673ffffffffffffffffffffffffffffffffffffffff161415156107ca576040517f08c379a00000000000000000000000000000000000000000000000000000000081526004018080602001828103825260228152602001807f4163636573732064656e6965642e20436f6d70616e79206f776e6572206f6e6c81526020017f792e00000000000000000000000000000000000000000000000000000000000081525060400191505060405180910390fd5b816000806101000a81548173ffffffffffffffffffffffffffffffffffffffff021916908373ffffffffffffffffffffffffffffffffffffffff1602179055505050565b60016020528060005260406000206000915054906101000a900460ff1681565b60076020528160005260406000208181548110151561084957fe5b906000526020600020016000915091509054906101000a900473ffffffffffffffffffffffffffffffffffffffff1681565b60048054600181600116156101000203166002900480601f0160208091040260200160405190810160405280929190818152602001828054600181600116156101000203166002900480156109115780601f106108e657610100808354040283529160200191610911565b820191906000526020600020905b8154815290600101906020018083116108f457829003601f168201915b505050505081565b6000809054906101000a900473ffffffffffffffffffffffffffffffffffffffff1681565b60038054600181600116156101000203166002900480601f0160208091040260200160405190810160405280929190818152602001828054600181600116156101000203166002900480156109d45780601f106109a9576101008083540402835291602001916109d4565b820191906000526020600020905b8154815290600101906020018083116109b757829003601f168201915b50505050508156fea165627a7a7230582072b671713b5d3949534e4c772ea3b9dbc5279dfb47a19f101c5367b437796be90029a165627a7a72305820082d28fde6d2c3cf21f5dd922ff5ad31ba22a27813f3f8b648de66e33643c7a70029",
  "source": "pragma solidity ^0.5.0;\n\nimport \"./BC.sol\";\nimport \"./KMToken.sol\";\n\nlibrary CompanyFactory {\n   \n    // Constants\n    uint8 constant public MAX_OWNER_COMPANIES = 3; // 1 owner could register up to 3 companies.\n    uint8 constant public MAX_COMPANY_TOKENS = 5; // 1 company could register up to 5 tokens.\n    address constant public EMPTY_ADDRESS = address(0); \n   \n    struct Data {\n        mapping (address => address[MAX_OWNER_COMPANIES]) companies; // (owner => companies[3]) \n        mapping (address => address[MAX_COMPANY_TOKENS]) tokens; // (company => token[5]))\n\n    }\n\n\n    function createBCCompany(Data storage self, string calldata _companyName, string calldata _phone, string calldata _url, string calldata _did, address _uPortAddress)\n        external \n        returns (BC)\n    { \n        uint8 position = nextCompanyAvailablePosition(self);\n        require(MAX_OWNER_COMPANIES > position, \"You can't create a new company. Max limit reached (5 companies).\");\n        BC newCompany = new BC(msg.sender, _companyName, _phone, _url, _did, _uPortAddress);\n        self.companies[msg.sender][position] = address(newCompany);\n        return newCompany;\n    }\n    \n\n    \n    function nextCompanyAvailablePosition(Data storage self)\n        internal\n        view\n        returns (uint8)\n    {\n        address[MAX_OWNER_COMPANIES] memory ownerCompanies = self.companies[msg.sender];\n        for (uint8 i = 0; i < MAX_OWNER_COMPANIES; i++) {\n            if (ownerCompanies[i] == EMPTY_ADDRESS){\n                return i; // first position available.\n            }\n        }\n       return MAX_OWNER_COMPANIES; // No empty spot available. \n    }\n\n    function nextCompanyAvailablePositionUtil(Data storage self)\n        external\n        view\n        returns (uint8)\n    {\n        return nextCompanyAvailablePosition(self);\n    }\n\n    function findBCownerUtil(Data storage self, address aCompany)\n        external\n        view\n        returns (address)\n    {\n        return findBCowner(self, aCompany);\n    }\n\n    function findBCowner(Data storage self, address aCompany)\n        internal\n        view\n        returns (address)\n    {\n        address[MAX_OWNER_COMPANIES] memory ownerCompanies = self.companies[msg.sender];\n        for (uint8 i = 0; i < MAX_OWNER_COMPANIES; i++) {\n            if (ownerCompanies[i] == aCompany){\n                return BC(ownerCompanies[i]).owner();\n            }\n        }\n        return EMPTY_ADDRESS;\n    }\n   \n\n    \n}",
  "sourcePath": "/home/juan/consensys/otherrepos/final-project-Juan-cc/kmp/contracts/CompanyFactory.sol",
  "compiler": {
    "name": "solc",
    "version": "0.5.0+commit.1d4f565a.Emscripten.clang"
  },
  "schemaVersion": "3.0.0",
  "updatedAt": "2019-01-23T18:46:45.503Z",
  "devdoc": {
    "methods": {}
  },
  "userdoc": {
    "methods": {}
  }
}