{
  "contractName": "KMP",
  "abi": [
    {
      "constant": true,
      "inputs": [],
      "name": "MAX_COMPANY_TOKENS",
      "outputs": [
        {
          "name": "",
          "type": "uint8"
        }
      ],
      "payable": false,
      "stateMutability": "view",
      "type": "function",
      "signature": "0x38abeb43"
    },
    {
      "constant": false,
      "inputs": [
        {
          "name": "_owner",
          "type": "address"
        }
      ],
      "name": "modifyOwner",
      "outputs": [],
      "payable": false,
      "stateMutability": "nonpayable",
      "type": "function",
      "signature": "0x40cb3462"
    },
    {
      "constant": true,
      "inputs": [],
      "name": "MAX_OWNER_COMPANIES",
      "outputs": [
        {
          "name": "",
          "type": "uint8"
        }
      ],
      "payable": false,
      "stateMutability": "view",
      "type": "function",
      "signature": "0x4642e0ba"
    },
    {
      "constant": true,
      "inputs": [],
      "name": "owner",
      "outputs": [
        {
          "name": "",
          "type": "address"
        }
      ],
      "payable": false,
      "stateMutability": "view",
      "type": "function",
      "signature": "0x8da5cb5b"
    },
    {
      "inputs": [],
      "payable": false,
      "stateMutability": "nonpayable",
      "type": "constructor",
      "signature": "constructor"
    },
    {
      "anonymous": false,
      "inputs": [
        {
          "indexed": false,
          "name": "company",
          "type": "address"
        },
        {
          "indexed": false,
          "name": "name",
          "type": "string"
        },
        {
          "indexed": true,
          "name": "owner",
          "type": "address"
        }
      ],
      "name": "KMPCompanyCreated",
      "type": "event",
      "signature": "0x0e5d9a817a72adb3a6f1c89938d5f51d9061962975fdf4e7919d5ffafe5e685a"
    },
    {
      "anonymous": false,
      "inputs": [
        {
          "indexed": true,
          "name": "_company",
          "type": "address"
        },
        {
          "indexed": true,
          "name": "_token",
          "type": "address"
        },
        {
          "indexed": false,
          "name": "_name",
          "type": "string"
        },
        {
          "indexed": false,
          "name": "_symbol",
          "type": "string"
        },
        {
          "indexed": false,
          "name": "_initialAmount",
          "type": "uint256"
        }
      ],
      "name": "KMPTokenCreated",
      "type": "event",
      "signature": "0xa2ce4f9550df88b58f4cad01b350581df15a041206e349e853380412e108e4fa"
    },
    {
      "constant": false,
      "inputs": [
        {
          "name": "bcFactoryAddress",
          "type": "address"
        },
        {
          "name": "tokenFactoryAddress",
          "type": "address"
        }
      ],
      "name": "setup",
      "outputs": [],
      "payable": false,
      "stateMutability": "nonpayable",
      "type": "function",
      "signature": "0x2d34ba79"
    },
    {
      "constant": false,
      "inputs": [
        {
          "name": "_companyName",
          "type": "string"
        },
        {
          "name": "_phone",
          "type": "string"
        },
        {
          "name": "_url",
          "type": "string"
        },
        {
          "name": "_did",
          "type": "string"
        },
        {
          "name": "_uPortAddress",
          "type": "address"
        }
      ],
      "name": "createBCCompany",
      "outputs": [
        {
          "name": "",
          "type": "address"
        }
      ],
      "payable": false,
      "stateMutability": "nonpayable",
      "type": "function",
      "signature": "0xebd31820"
    },
    {
      "constant": false,
      "inputs": [
        {
          "name": "_bcCompany",
          "type": "address"
        },
        {
          "name": "_name",
          "type": "string"
        },
        {
          "name": "_symbol",
          "type": "string"
        },
        {
          "name": "_initialAmount",
          "type": "uint256"
        }
      ],
      "name": "createTokenForBCCompany",
      "outputs": [
        {
          "name": "",
          "type": "address"
        }
      ],
      "payable": false,
      "stateMutability": "nonpayable",
      "type": "function",
      "signature": "0x0da518c7"
    },
    {
      "constant": true,
      "inputs": [
        {
          "name": "_company",
          "type": "address"
        },
        {
          "name": "_token",
          "type": "address"
        },
        {
          "name": "_user",
          "type": "address"
        }
      ],
      "name": "getUserTokenBalance",
      "outputs": [
        {
          "name": "aBalance",
          "type": "uint256"
        }
      ],
      "payable": false,
      "stateMutability": "view",
      "type": "function",
      "signature": "0x2fee0c1a"
    },
    {
      "constant": true,
      "inputs": [
        {
          "name": "company",
          "type": "address"
        }
      ],
      "name": "findBCownerUtil",
      "outputs": [
        {
          "name": "",
          "type": "address"
        }
      ],
      "payable": false,
      "stateMutability": "view",
      "type": "function",
      "signature": "0xfc82cb15"
    },
    {
      "constant": true,
      "inputs": [
        {
          "name": "aCompany",
          "type": "address"
        },
        {
          "name": "aToken",
          "type": "address"
        }
      ],
      "name": "tokenInBC",
      "outputs": [
        {
          "name": "",
          "type": "bool"
        }
      ],
      "payable": false,
      "stateMutability": "view",
      "type": "function",
      "signature": "0xe5b29fee"
    },
    {
      "constant": true,
      "inputs": [
        {
          "name": "aCompany",
          "type": "address"
        },
        {
          "name": "aToken",
          "type": "address"
        }
      ],
      "name": "findBCToken",
      "outputs": [
        {
          "name": "",
          "type": "address"
        }
      ],
      "payable": false,
      "stateMutability": "view",
      "type": "function",
      "signature": "0x5e2b7e7c"
    },
    {
      "constant": false,
      "inputs": [],
      "name": "activateEmergency",
      "outputs": [
        {
          "name": "",
          "type": "bool"
        }
      ],
      "payable": false,
      "stateMutability": "nonpayable",
      "type": "function",
      "signature": "0x457e8b97"
    }
  ],
  "bytecode": "0x60806040526000600460146101000a81548160ff02191690831515021790555034801561002b57600080fd5b50336000806101000a81548173ffffffffffffffffffffffffffffffffffffffff021916908373ffffffffffffffffffffffffffffffffffffffff160217905550611f1d8061007b6000396000f3fe6080604052600436106100ba576000357c0100000000000000000000000000000000000000000000000000000000900463ffffffff1680630da518c7146100bf5780632d34ba79146102045780632fee0c1a1461027557806338abeb431461031a57806340cb34621461034b578063457e8b971461039c5780634642e0ba146103cb5780635e2b7e7c146103fc5780638da5cb5b146104ad578063e5b29fee14610504578063ebd318201461058d578063fc82cb1514610772575b600080fd5b3480156100cb57600080fd5b506101c2600480360360808110156100e257600080fd5b81019080803573ffffffffffffffffffffffffffffffffffffffff1690602001909291908035906020019064010000000081111561011f57600080fd5b82018360208201111561013157600080fd5b8035906020019184600183028401116401000000008311171561015357600080fd5b90919293919293908035906020019064010000000081111561017457600080fd5b82018360208201111561018657600080fd5b803590602001918460018302840111640100000000831117156101a857600080fd5b909192939192939080359060200190929190505050610803565b604051808273ffffffffffffffffffffffffffffffffffffffff1673ffffffffffffffffffffffffffffffffffffffff16815260200191505060405180910390f35b34801561021057600080fd5b506102736004803603604081101561022757600080fd5b81019080803573ffffffffffffffffffffffffffffffffffffffff169060200190929190803573ffffffffffffffffffffffffffffffffffffffff169060200190929190505050610cec565b005b34801561028157600080fd5b506103046004803603606081101561029857600080fd5b81019080803573ffffffffffffffffffffffffffffffffffffffff169060200190929190803573ffffffffffffffffffffffffffffffffffffffff169060200190929190803573ffffffffffffffffffffffffffffffffffffffff169060200190929190505050610e5e565b6040518082815260200191505060405180910390f35b34801561032657600080fd5b5061032f611196565b604051808260ff1660ff16815260200191505060405180910390f35b34801561035757600080fd5b5061039a6004803603602081101561036e57600080fd5b81019080803573ffffffffffffffffffffffffffffffffffffffff16906020019092919050505061119b565b005b3480156103a857600080fd5b506103b16112ca565b604051808215151515815260200191505060405180910390f35b3480156103d757600080fd5b506103e06113e8565b604051808260ff1660ff16815260200191505060405180910390f35b34801561040857600080fd5b5061046b6004803603604081101561041f57600080fd5b81019080803573ffffffffffffffffffffffffffffffffffffffff169060200190929190803573ffffffffffffffffffffffffffffffffffffffff1690602001909291905050506113ed565b604051808273ffffffffffffffffffffffffffffffffffffffff1673ffffffffffffffffffffffffffffffffffffffff16815260200191505060405180910390f35b3480156104b957600080fd5b506104c2611411565b604051808273ffffffffffffffffffffffffffffffffffffffff1673ffffffffffffffffffffffffffffffffffffffff16815260200191505060405180910390f35b34801561051057600080fd5b506105736004803603604081101561052757600080fd5b81019080803573ffffffffffffffffffffffffffffffffffffffff169060200190929190803573ffffffffffffffffffffffffffffffffffffffff169060200190929190505050611436565b604051808215151515815260200191505060405180910390f35b34801561059957600080fd5b50610730600480360360a08110156105b057600080fd5b81019080803590602001906401000000008111156105cd57600080fd5b8201836020820111156105df57600080fd5b8035906020019184600183028401116401000000008311171561060157600080fd5b90919293919293908035906020019064010000000081111561062257600080fd5b82018360208201111561063457600080fd5b8035906020019184600183028401116401000000008311171561065657600080fd5b90919293919293908035906020019064010000000081111561067757600080fd5b82018360208201111561068957600080fd5b803590602001918460018302840111640100000000831117156106ab57600080fd5b9091929391929390803590602001906401000000008111156106cc57600080fd5b8201836020820111156106de57600080fd5b8035906020019184600183028401116401000000008311171561070057600080fd5b9091929391929390803573ffffffffffffffffffffffffffffffffffffffff169060200190929190505050611647565b604051808273ffffffffffffffffffffffffffffffffffffffff1673ffffffffffffffffffffffffffffffffffffffff16815260200191505060405180910390f35b34801561077e57600080fd5b506107c16004803603602081101561079557600080fd5b81019080803573ffffffffffffffffffffffffffffffffffffffff169060200190929190505050611c42565b604051808273ffffffffffffffffffffffffffffffffffffffff1673ffffffffffffffffffffffffffffffffffffffff16815260200191505060405180910390f35b6000600460149054906101000a900460ff1615151561082157600080fd5b61082a87611c54565b8073ffffffffffffffffffffffffffffffffffffffff163373ffffffffffffffffffffffffffffffffffffffff161415156108f3576040517f08c379a000000000000000000000000000000000000000000000000000000000815260040180806020018281038252602c8152602001807f4f6e6c7920636f6d70616e79206f776e65722063616e2065786563757465207481526020017f6869732066756e6374696f6e000000000000000000000000000000000000000081525060400191505060405180910390fd5b60006060600460009054906101000a900473ffffffffffffffffffffffffffffffffffffffff1673ffffffffffffffffffffffffffffffffffffffff168a8a8a8a8a8a604051602401808773ffffffffffffffffffffffffffffffffffffffff1673ffffffffffffffffffffffffffffffffffffffff16815260200180602001806020018481526020018381038352888882818152602001925080828437600081840152601f19601f8201169050808301925050508381038252868682818152602001925080828437600081840152601f19601f820116905080830192505050985050505050505050506040516020818303038152906040527f0da518c7000000000000000000000000000000000000000000000000000000007bffffffffffffffffffffffffffffffffffffffffffffffffffffffff19166020820180517bffffffffffffffffffffffffffffffffffffffffffffffffffffffff83818316178352505050506040518082805190602001908083835b602083101515610a8f5780518252602082019150602081019050602083039250610a6a565b6001836020036101000a038019825116818451168082178552505050505050905001915050600060405180830381855af49150503d8060008114610aef576040519150601f19603f3d011682016040523d82523d6000602084013e610af4565b606091505b50915091508115610c01576000818060200190516020811015610b1657600080fd5b810190808051906020019092919050505090508073ffffffffffffffffffffffffffffffffffffffff168b73ffffffffffffffffffffffffffffffffffffffff167fa2ce4f9550df88b58f4cad01b350581df15a041206e349e853380412e108e4fa8c8c8c8c8c6040518080602001806020018481526020018381038352888882818152602001925080828437600081840152601f19601f8201169050808301925050508381038252868682818152602001925080828437600081840152601f19601f82011690508083019250505097505050505050505060405180910390a3809450505050610ce1565b6040517f08c379a00000000000000000000000000000000000000000000000000000000081526004018080602001828103825260688152602001807f556e666f7274756e6174656c7920796f757220746f6b656e20776173206e6f7481526020017f206372656174656420636f72726563746c792e20506c6561736520636f6e746181526020017f6374204b4d5020537570706f72742e20526576657274696e672073746174652081526020017f6368616e6765732e00000000000000000000000000000000000000000000000081525060800191505060405180910390fd5b509695505050505050565b338073ffffffffffffffffffffffffffffffffffffffff166000809054906101000a900473ffffffffffffffffffffffffffffffffffffffff1673ffffffffffffffffffffffffffffffffffffffff16141515610dd7576040517f08c379a00000000000000000000000000000000000000000000000000000000081526004018080602001828103825260228152602001807f4163636573732064656e6965642e20436f6d70616e79206f776e6572206f6e6c81526020017f792e00000000000000000000000000000000000000000000000000000000000081525060400191505060405180910390fd5b82600360006101000a81548173ffffffffffffffffffffffffffffffffffffffff021916908373ffffffffffffffffffffffffffffffffffffffff16021790555081600460006101000a81548173ffffffffffffffffffffffffffffffffffffffff021916908373ffffffffffffffffffffffffffffffffffffffff160217905550505050565b6000610e6984611c54565b8073ffffffffffffffffffffffffffffffffffffffff163373ffffffffffffffffffffffffffffffffffffffff16141515610f32576040517f08c379a000000000000000000000000000000000000000000000000000000000815260040180806020018281038252602c8152602001807f4f6e6c7920636f6d70616e79206f776e65722063616e2065786563757465207481526020017f6869732066756e6374696f6e000000000000000000000000000000000000000081525060400191505060405180910390fd5b610f3c85856113ed565b73ffffffffffffffffffffffffffffffffffffffff16600073ffffffffffffffffffffffffffffffffffffffff1614151515610fe0576040517f08c379a00000000000000000000000000000000000000000000000000000000081526004018080602001828103825260108152602001807f546f6b656e206e6f7420666f756e642e0000000000000000000000000000000081525060200191505060405180910390fd5b606083604051602401808273ffffffffffffffffffffffffffffffffffffffff1673ffffffffffffffffffffffffffffffffffffffff1681526020019150506040516020818303038152906040527f70a08231000000000000000000000000000000000000000000000000000000007bffffffffffffffffffffffffffffffffffffffffffffffffffffffff19166020820180517bffffffffffffffffffffffffffffffffffffffffffffffffffffffff83818316178352505050509050600060608673ffffffffffffffffffffffffffffffffffffffff16836040518082805190602001908083835b6020831015156110ef57805182526020820191506020810190506020830392506110ca565b6001836020036101000a038019825116818451168082178552505050505050905001915050600060405180830381855afa9150503d806000811461114f576040519150601f19603f3d011682016040523d82523d6000602084013e611154565b606091505b509150915081156111885780806020019051602081101561117457600080fd5b810190808051906020019092919050505094505b849450505050509392505050565b600581565b338073ffffffffffffffffffffffffffffffffffffffff166000809054906101000a900473ffffffffffffffffffffffffffffffffffffffff1673ffffffffffffffffffffffffffffffffffffffff16141515611286576040517f08c379a00000000000000000000000000000000000000000000000000000000081526004018080602001828103825260228152602001807f4163636573732064656e6965642e20436f6d70616e79206f776e6572206f6e6c81526020017f792e00000000000000000000000000000000000000000000000000000000000081525060400191505060405180910390fd5b816000806101000a81548173ffffffffffffffffffffffffffffffffffffffff021916908373ffffffffffffffffffffffffffffffffffffffff1602179055505050565b6000338073ffffffffffffffffffffffffffffffffffffffff166000809054906101000a900473ffffffffffffffffffffffffffffffffffffffff1673ffffffffffffffffffffffffffffffffffffffff161415156113b7576040517f08c379a00000000000000000000000000000000000000000000000000000000081526004018080602001828103825260228152602001807f4163636573732064656e6965642e20436f6d70616e79206f776e6572206f6e6c81526020017f792e00000000000000000000000000000000000000000000000000000000000081525060400191505060405180910390fd5b6001600460146101000a81548160ff021916908315150217905550600460149054906101000a900460ff1691505090565b600381565b60006113f98383611436565b156114065781905061140b565b600090505b92915050565b6000809054906101000a900473ffffffffffffffffffffffffffffffffffffffff1681565b600061144183611c54565b73ffffffffffffffffffffffffffffffffffffffff163373ffffffffffffffffffffffffffffffffffffffff16141515611509576040517f08c379a00000000000000000000000000000000000000000000000000000000081526004018080602001828103825260298152602001807f4f6e6c7920636f6d70616e79206f776e65722063616e2073656172636820666f81526020017f7220746f6b656e732e000000000000000000000000000000000000000000000081525060400191505060405180910390fd5b611511611eab565b600260008573ffffffffffffffffffffffffffffffffffffffff1673ffffffffffffffffffffffffffffffffffffffff1681526020019081526020016000206005806020026040519081016040528092919082600580156115bd576020028201915b8160009054906101000a900473ffffffffffffffffffffffffffffffffffffffff1673ffffffffffffffffffffffffffffffffffffffff1681526020019060010190808311611573575b5050505050905060008090505b600560ff168160ff16101561163a578373ffffffffffffffffffffffffffffffffffffffff16828260ff1660058110151561160157fe5b602002015173ffffffffffffffffffffffffffffffffffffffff16141561162d57600192505050611641565b80806001019150506115ca565b5060009150505b92915050565b6000600460149054906101000a900460ff1615151561166557600080fd5b60006060600360009054906101000a900473ffffffffffffffffffffffffffffffffffffffff1673ffffffffffffffffffffffffffffffffffffffff168c8c8c8c8c8c8c8c8c60405160240180806020018060200180602001806020018673ffffffffffffffffffffffffffffffffffffffff1673ffffffffffffffffffffffffffffffffffffffff16815260200185810385528e8e82818152602001925080828437600081840152601f19601f82011690508083019250505085810384528c8c82818152602001925080828437600081840152601f19601f82011690508083019250505085810383528a8a82818152602001925080828437600081840152601f19601f8201169050808301925050508581038252888882818152602001925080828437600081840152601f19601f8201169050808301925050509d50505050505050505050505050506040516020818303038152906040527febd31820000000000000000000000000000000000000000000000000000000007bffffffffffffffffffffffffffffffffffffffffffffffffffffffff19166020820180517bffffffffffffffffffffffffffffffffffffffffffffffffffffffff83818316178352505050506040518082805190602001908083835b602083101515611861578051825260208201915060208101905060208303925061183c565b6001836020036101000a038019825116818451168082178552505050505050905001915050600060405180830381855af49150503d80600081146118c1576040519150601f19603f3d011682016040523d82523d6000602084013e6118c6565b606091505b50915091508115611b7b5760008180602001905160208110156118e857600080fd5b810190808051906020019092919050505090508073ffffffffffffffffffffffffffffffffffffffff16638da5cb5b6040518163ffffffff167c010000000000000000000000000000000000000000000000000000000002815260040160206040518083038186803b15801561195d57600080fd5b505afa158015611971573d6000803e3d6000fd5b505050506040513d602081101561198757600080fd5b810190808051906020019092919050505073ffffffffffffffffffffffffffffffffffffffff167f0e5d9a817a72adb3a6f1c89938d5f51d9061962975fdf4e7919d5ffafe5e685a828373ffffffffffffffffffffffffffffffffffffffff166306fdde036040518163ffffffff167c010000000000000000000000000000000000000000000000000000000002815260040160006040518083038186803b158015611a3257600080fd5b505afa158015611a46573d6000803e3d6000fd5b505050506040513d6000823e3d601f19601f820116820180604052506020811015611a7057600080fd5b810190808051640100000000811115611a8857600080fd5b82810190506020810184811115611a9e57600080fd5b8151856001820283011164010000000082111715611abb57600080fd5b5050929190505050604051808373ffffffffffffffffffffffffffffffffffffffff1673ffffffffffffffffffffffffffffffffffffffff16815260200180602001828103825283818151815260200191508051906020019080838360005b83811015611b35578082015181840152602081019050611b1a565b50505050905090810190601f168015611b625780820380516001836020036101000a031916815260200191505b50935050505060405180910390a2809350505050611c35565b6040517f08c379a00000000000000000000000000000000000000000000000000000000081526004018080602001828103825260578152602001807f596f757220636f6d70616e7920776173206e6f7420637265617465642e20507281526020017f6f6261626c7920796f752072656163686564204d41585f4c494d49543f2e205281526020017f6576657274696e67207374617465206368616e6765732e00000000000000000081525060600191505060405180910390fd5b9998505050505050505050565b6000611c4d82611c54565b9050919050565b6000611c5e611ece565b600160003373ffffffffffffffffffffffffffffffffffffffff1673ffffffffffffffffffffffffffffffffffffffff168152602001908152602001600020600380602002604051908101604052809291908260038015611d0a576020028201915b8160009054906101000a900473ffffffffffffffffffffffffffffffffffffffff1673ffffffffffffffffffffffffffffffffffffffff1681526020019060010190808311611cc0575b5050505050905060008090505b600360ff168160ff161015611e37578373ffffffffffffffffffffffffffffffffffffffff16828260ff16600381101515611d4e57fe5b602002015173ffffffffffffffffffffffffffffffffffffffff161415611e2a57818160ff16600381101515611d8057fe5b602002015173ffffffffffffffffffffffffffffffffffffffff16638da5cb5b6040518163ffffffff167c010000000000000000000000000000000000000000000000000000000002815260040160206040518083038186803b158015611de657600080fd5b505afa158015611dfa573d6000803e3d6000fd5b505050506040513d6020811015611e1057600080fd5b810190808051906020019092919050505092505050611ea6565b8080600101915050611d17565b506040517f08c379a000000000000000000000000000000000000000000000000000000000815260040180806020018281038252601a8152602001807f436f6d70616e792061646472657373206e6f7420666f756e642e00000000000081525060200191505060405180910390fd5b919050565b60a060405190810160405280600590602082028038833980820191505090505090565b60606040519081016040528060039060208202803883398082019150509050509056fea165627a7a7230582070df51b704a33328b62fd5b79c4336bd89004132fb1a69c24bd12e919a26d5000029",
  "source": "pragma solidity ^0.5.0;\n\nimport \"./KMToken.sol\";\nimport \"./Owned.sol\";\nimport \"./BC.sol\";\nimport \"./Storage.sol\";\n\n\ncontract KMP is Owned, Storage {\n\n    // Events\n    event KMPCompanyCreated(address company, string name, address indexed owner);\n    event KMPTokenCreated(address indexed _company, address indexed _token, string _name, string _symbol, uint256 _initialAmount);\n\n    constructor() Owned() public {\n    }\n\n    function setup(address bcFactoryAddress, address tokenFactoryAddress) \n        ownerOnly(msg.sender) \n        external \n    {\n        bcFactory = bcFactoryAddress; // Owner will be KMP contract.\n        tkFactory = tokenFactoryAddress; // Owner will be KMP contract.\n\n    }\n    \n    // Circuit breaker modifier\n    modifier stopInEmergency() { \n        require(!stopped); \n        _; \n    }\n    modifier onlyCompanyOwner(address companyOwner){\n        require(msg.sender == companyOwner, \"Only company owner can execute this function\");\n        _;\n    }\n     \n    function createBCCompany(string calldata _companyName, string calldata _phone, string calldata _url, string calldata _did, address _uPortAddress) \n        external \n        stopInEmergency()\n        returns(BC)\n    {\n        (bool companyCreated, bytes memory returnData) = bcFactory.delegatecall(\n            abi.encodeWithSignature(\"createBCCompany(string,string,string,string,address)\",\n            _companyName, _phone, _url, _did, _uPortAddress));\n        if (companyCreated){\n            (BC newCompany) = abi.decode(returnData, (BC));\n            emit KMPCompanyCreated(address(newCompany), newCompany.name(), newCompany.owner());\n            return newCompany;\n        }\n        revert(\"Your company was not created. Probably you reached MAX_LIMIT?. Reverting state changes.\"); \n    } \n    \n    function createTokenForBCCompany(address _bcCompany, string calldata _name, string calldata _symbol, uint256 _initialAmount) \n        external \n        stopInEmergency()\n        onlyCompanyOwner(findBCowner(_bcCompany))\n        returns(KMToken)\n    {\n           \n        (bool tokenCreated, bytes memory returnData) = tkFactory.delegatecall(\n            abi.encodeWithSignature(\"createTokenForBCCompany(address,string,string,uint256)\",\n            _bcCompany, _name, _symbol, _initialAmount));\n        if (tokenCreated){\n            (KMToken newToken) = abi.decode(returnData, (KMToken));\n            emit KMPTokenCreated(_bcCompany, address(newToken), _name, _symbol, _initialAmount);\n            return newToken;\n        }\n        revert(\"Unfortunately your token was not created correctly. Please contact KMP Support. Reverting state changes.\"); \n        \n    }\n \n    function getUserTokenBalance(address _company, address _token, address _user)\n        external\n        view\n        onlyCompanyOwner(findBCowner(_company))\n        returns (uint256 aBalance)\n    {\n        require(EMPTY_ADDRESS != findBCToken(_company, _token), \"Token not found.\"); \n        bytes memory payload = abi.encodeWithSignature(\"balanceOf(address)\", _user);\n        (bool result, bytes memory returnData) = _token.staticcall(payload);\n        if (result) {\n            aBalance = abi.decode(returnData, (uint256));\n        }\n        return aBalance;\n    }\n\n\n    function findBCownerUtil(address company) // Util methods are for development purposes only. \n        external\n        view\n        returns (address)\n    {\n        return findBCowner(company);\n    }\n    \n    \n    function findBCowner(address aCompany)\n        internal\n        view\n        returns (address)\n    {\n        address[MAX_OWNER_COMPANIES] memory ownerCompanies = companies[msg.sender];\n        for (uint8 i = 0; i < MAX_OWNER_COMPANIES; i++) {\n            if (ownerCompanies[i] == aCompany){\n                return BC(ownerCompanies[i]).owner();\n            }\n        }\n        revert(\"Company address not found.\");\n    }\n    \n\n    function tokenInBC(address aCompany, address aToken)\n        public \n        view\n        returns (bool)\n    {\n        require(msg.sender == findBCowner(aCompany), \"Only company owner can search for tokens.\");\n        address[MAX_COMPANY_TOKENS] memory companyTokens = tokens[aCompany];\n        for (uint8 i = 0; i < MAX_COMPANY_TOKENS; i++) {\n            if (companyTokens[i] == aToken){\n                return true; // Token found.\n            }\n        }\n        return false; // Token not found. \n    }\n    \n    function findBCToken(address aCompany, address aToken)\n        public \n        view\n        returns (address)\n    {\n        if (tokenInBC(aCompany, aToken)){\n            return aToken;\n        }\n        return EMPTY_ADDRESS;\n    }\n    \n    \n    function activateEmergency()\n        ownerOnly(msg.sender) \n        external\n        returns(bool)\n    {\n        stopped = true;\n        return stopped;\n    }\n}\n",
  "sourcePath": "/home/juan/consensys/otherrepos/final-project-Juan-cc/kmp/contracts/KMP.sol",
  "compiler": {
    "name": "solc",
    "version": "0.5.0+commit.1d4f565a.Emscripten.clang"
  },
  "schemaVersion": "3.0.0",
  "updatedAt": "2019-01-20T18:39:59.488Z",
  "devdoc": {
    "methods": {}
  },
  "userdoc": {
    "methods": {}
  }
}