{
  "contractName": "Owned",
  "abi": [
    {
      "constant": true,
      "inputs": [],
      "name": "owner",
      "outputs": [
        {
          "name": "",
          "type": "address"
        }
      ],
      "payable": false,
      "stateMutability": "view",
      "type": "function",
      "signature": "0x8da5cb5b"
    },
    {
      "inputs": [],
      "payable": false,
      "stateMutability": "nonpayable",
      "type": "constructor",
      "signature": "constructor"
    },
    {
      "constant": false,
      "inputs": [
        {
          "name": "_owner",
          "type": "address"
        }
      ],
      "name": "modifyOwner",
      "outputs": [],
      "payable": false,
      "stateMutability": "nonpayable",
      "type": "function",
      "signature": "0x40cb3462"
    }
  ],
  "bytecode": "0x608060405234801561001057600080fd5b50336000806101000a81548173ffffffffffffffffffffffffffffffffffffffff021916908373ffffffffffffffffffffffffffffffffffffffff160217905550610279806100606000396000f3fe60806040526004361061004c576000357c0100000000000000000000000000000000000000000000000000000000900463ffffffff16806340cb3462146100515780638da5cb5b146100a2575b600080fd5b34801561005d57600080fd5b506100a06004803603602081101561007457600080fd5b81019080803573ffffffffffffffffffffffffffffffffffffffff1690602001909291905050506100f9565b005b3480156100ae57600080fd5b506100b7610228565b604051808273ffffffffffffffffffffffffffffffffffffffff1673ffffffffffffffffffffffffffffffffffffffff16815260200191505060405180910390f35b338073ffffffffffffffffffffffffffffffffffffffff166000809054906101000a900473ffffffffffffffffffffffffffffffffffffffff1673ffffffffffffffffffffffffffffffffffffffff161415156101e4576040517f08c379a00000000000000000000000000000000000000000000000000000000081526004018080602001828103825260228152602001807f4163636573732064656e6965642e20436f6d70616e79206f776e6572206f6e6c81526020017f792e00000000000000000000000000000000000000000000000000000000000081525060400191505060405180910390fd5b816000806101000a81548173ffffffffffffffffffffffffffffffffffffffff021916908373ffffffffffffffffffffffffffffffffffffffff1602179055505050565b6000809054906101000a900473ffffffffffffffffffffffffffffffffffffffff168156fea165627a7a72305820e39f39a81d1ad6a4596f52907453a02490e6002148aa21811fa676ae64ce02330029",
  "source": "pragma solidity ^0.5.0;\n\ncontract Owned{\n    /* TODO: Can be changed for Ownable from zepellin*/\n    address public owner;\n    \n    constructor() public{\n        owner = msg.sender;    \n    }\n    \n    modifier ownerOnly(address _owner){\n        require(owner == _owner, \"Access denied. Company owner only.\");    \n        _;\n    }\n    \n    \n    function modifyOwner(address _owner)\n        public\n        ownerOnly(msg.sender)\n    {\n        owner = _owner;\n    }\n}\n",
  "sourcePath": "/home/juan/consensys/otherrepos/final-project-Juan-cc/kmp/contracts/Owned.sol",
  "compiler": {
    "name": "solc",
    "version": "0.5.0+commit.1d4f565a.Emscripten.clang"
  },
  "schemaVersion": "3.0.0",
  "updatedAt": "2019-01-21T18:41:19.425Z",
  "devdoc": {
    "methods": {}
  },
  "userdoc": {
    "methods": {}
  }
}