{
  "contractName": "Storage",
  "abi": [
    {
      "constant": true,
      "inputs": [],
      "name": "MAX_COMPANY_TOKENS",
      "outputs": [
        {
          "name": "",
          "type": "uint8"
        }
      ],
      "payable": false,
      "stateMutability": "view",
      "type": "function"
    },
    {
      "constant": true,
      "inputs": [],
      "name": "MAX_OWNER_COMPANIES",
      "outputs": [
        {
          "name": "",
          "type": "uint8"
        }
      ],
      "payable": false,
      "stateMutability": "view",
      "type": "function"
    }
  ],
  "bytecode": "0x60806040526000600360146101000a81548160ff02191690831515021790555034801561002b57600080fd5b5060e08061003a6000396000f3fe6080604052600436106049576000357c0100000000000000000000000000000000000000000000000000000000900463ffffffff16806338abeb4314604e5780634642e0ba14607c575b600080fd5b348015605957600080fd5b50606060aa565b604051808260ff1660ff16815260200191505060405180910390f35b348015608757600080fd5b50608e60af565b604051808260ff1660ff16815260200191505060405180910390f35b600581565b60038156fea165627a7a7230582030a9191f0cd55974307ad4748cc5b07f16b110efc103c5b1a1182b8ecbb3d24d0029",
  "source": "pragma solidity ^0.5.0;\n\nimport \"./BCFactory.sol\";\nimport \"./TokenFactory.sol\";\n\ncontract Storage {\n     // Shared storage\n    uint8 constant public MAX_OWNER_COMPANIES = 3; // 1 owner could register up to 5 companies.\n    uint8 constant public MAX_COMPANY_TOKENS = 5; // 1 company could register up to 10 tokens.\n    address constant internal EMPTY_ADDRESS = address(0); \n    mapping (address => address[MAX_OWNER_COMPANIES]) internal companies; // (owner => companies[5]) \n    mapping (address => address[MAX_COMPANY_TOKENS]) internal tokens; // (company => token[]))\n    BCFactory internal bcFactory;\n    TokenFactory internal tkFactory;\n    bool internal stopped = false;  // Circuit breaker\n}\n",
  "sourcePath": "/home/juan/consensys/otherrepos/final-project-Juan-cc/kmp/contracts/Storage.sol",
  "compiler": {
    "name": "solc",
    "version": "0.5.0+commit.1d4f565a.Emscripten.clang"
  },
  "schemaVersion": "3.0.0",
  "updatedAt": "2019-01-19T16:54:39.098Z",
  "devdoc": {
    "methods": {}
  },
  "userdoc": {
    "methods": {}
  }
}