{
  "contractName": "Storage",
  "abi": [
    {
      "constant": true,
      "inputs": [],
      "name": "MAX_COMPANY_TOKENS",
      "outputs": [
        {
          "name": "",
          "type": "uint8"
        }
      ],
      "payable": false,
      "stateMutability": "view",
      "type": "function"
    },
    {
      "constant": true,
      "inputs": [],
      "name": "MAX_OWNER_COMPANIES",
      "outputs": [
        {
          "name": "",
          "type": "uint8"
        }
      ],
      "payable": false,
      "stateMutability": "view",
      "type": "function"
    }
  ],
  "bytecode": "0x60806040526003805460a060020a60ff021916905534801561002057600080fd5b5060bd8061002f6000396000f3fe60806040526004361060485763ffffffff7c010000000000000000000000000000000000000000000000000000000060003504166338abeb438114604d5780634642e0ba146075575b600080fd5b348015605857600080fd5b50605f6087565b6040805160ff9092168252519081900360200190f35b348015608057600080fd5b50605f608c565b600581565b60038156fea165627a7a72305820ae2f8985f2fe033abb94988451500da3808177d05c43abedd354f9e06b9c473f0029",
  "source": "pragma solidity ^0.5.0;\n\ncontract Storage {\n     // Shared storage\n    uint8 constant public MAX_OWNER_COMPANIES = 3; // 1 owner could register up to 5 companies.\n    uint8 constant public MAX_COMPANY_TOKENS = 5; // 1 company could register up to 10 tokens.\n    address constant internal EMPTY_ADDRESS = address(0); \n    mapping (address => address[MAX_OWNER_COMPANIES]) internal companies; // (owner => companies[5]) \n    mapping (address => address[MAX_COMPANY_TOKENS]) internal tokens; // (company => token[]))\n    address internal bcFactory;\n    address internal tkFactory;\n    bool internal stopped = false;  // Circuit breaker\n}\n",
  "sourcePath": "/home/juan/consensys/otherrepos/final-project-Juan-cc/kmp/contracts/Storage.sol",
  "compiler": {
    "name": "solc",
    "version": "0.5.0+commit.1d4f565a.Emscripten.clang"
  },
  "schemaVersion": "3.0.0",
  "updatedAt": "2019-01-23T23:14:21.714Z",
  "devdoc": {
    "methods": {}
  },
  "userdoc": {
    "methods": {}
  }
}