{
  "contractName": "TokenFactory",
  "abi": [
    {
      "constant": true,
      "inputs": [],
      "name": "MAX_COMPANY_TOKENS",
      "outputs": [
        {
          "name": "",
          "type": "uint8"
        }
      ],
      "payable": false,
      "stateMutability": "view",
      "type": "function"
    },
    {
      "constant": false,
      "inputs": [
        {
          "name": "_owner",
          "type": "address"
        }
      ],
      "name": "modifyOwner",
      "outputs": [],
      "payable": false,
      "stateMutability": "nonpayable",
      "type": "function"
    },
    {
      "constant": true,
      "inputs": [],
      "name": "MAX_OWNER_COMPANIES",
      "outputs": [
        {
          "name": "",
          "type": "uint8"
        }
      ],
      "payable": false,
      "stateMutability": "view",
      "type": "function"
    },
    {
      "constant": true,
      "inputs": [],
      "name": "owner",
      "outputs": [
        {
          "name": "",
          "type": "address"
        }
      ],
      "payable": false,
      "stateMutability": "view",
      "type": "function"
    },
    {
      "constant": false,
      "inputs": [
        {
          "name": "_bcCompany",
          "type": "address"
        },
        {
          "name": "_name",
          "type": "string"
        },
        {
          "name": "_symbol",
          "type": "string"
        },
        {
          "name": "_initialAmount",
          "type": "uint256"
        }
      ],
      "name": "createTokenForBCCompany",
      "outputs": [
        {
          "name": "",
          "type": "address"
        }
      ],
      "payable": false,
      "stateMutability": "nonpayable",
      "type": "function"
    },
    {
      "constant": true,
      "inputs": [
        {
          "name": "aCompany",
          "type": "address"
        }
      ],
      "name": "findBCownerUtil",
      "outputs": [
        {
          "name": "",
          "type": "address"
        }
      ],
      "payable": false,
      "stateMutability": "view",
      "type": "function"
    }
  ],
  "bytecode": "0x60806040526000600460146101000a81548160ff021916908315150217905550336000806101000a81548173ffffffffffffffffffffffffffffffffffffffff021916908373ffffffffffffffffffffffffffffffffffffffff16021790555061247e8061006e6000396000f3fe6080604052600436106200007f576000357c0100000000000000000000000000000000000000000000000000000000900463ffffffff1680630da518c7146200008457806338abeb4314620001d357806340cb346214620002075780634642e0ba146200025c5780638da5cb5b1462000290578063fc82cb1514620002ea575b600080fd5b3480156200009157600080fd5b506200019160048036036080811015620000aa57600080fd5b81019080803573ffffffffffffffffffffffffffffffffffffffff16906020019092919080359060200190640100000000811115620000e857600080fd5b820183602082011115620000fb57600080fd5b803590602001918460018302840111640100000000831117156200011e57600080fd5b9091929391929390803590602001906401000000008111156200014057600080fd5b8201836020820111156200015357600080fd5b803590602001918460018302840111640100000000831117156200017657600080fd5b9091929391929390803590602001909291905050506200037f565b604051808273ffffffffffffffffffffffffffffffffffffffff1673ffffffffffffffffffffffffffffffffffffffff16815260200191505060405180910390f35b348015620001e057600080fd5b50620001eb6200057b565b604051808260ff1660ff16815260200191505060405180910390f35b3480156200021457600080fd5b506200025a600480360360208110156200022d57600080fd5b81019080803573ffffffffffffffffffffffffffffffffffffffff16906020019092919050505062000580565b005b3480156200026957600080fd5b5062000274620006b0565b604051808260ff1660ff16815260200191505060405180910390f35b3480156200029d57600080fd5b50620002a8620006b5565b604051808273ffffffffffffffffffffffffffffffffffffffff1673ffffffffffffffffffffffffffffffffffffffff16815260200191505060405180910390f35b348015620002f757600080fd5b506200033d600480360360208110156200031057600080fd5b81019080803573ffffffffffffffffffffffffffffffffffffffff169060200190929190505050620006da565b604051808273ffffffffffffffffffffffffffffffffffffffff1673ffffffffffffffffffffffffffffffffffffffff16815260200191505060405180910390f35b60006200038c87620006ee565b73ffffffffffffffffffffffffffffffffffffffff163373ffffffffffffffffffffffffffffffffffffffff16141515620003c657600080fd5b600087338888888888620003d962000b6e565b808873ffffffffffffffffffffffffffffffffffffffff1673ffffffffffffffffffffffffffffffffffffffff1681526020018773ffffffffffffffffffffffffffffffffffffffff1673ffffffffffffffffffffffffffffffffffffffff16815260200180602001806020018481526020018381038352888882818152602001925080828437600081840152601f19601f8201169050808301925050508381038252868682818152602001925080828437600081840152601f19601f8201169050808301925050509950505050505050505050604051809103906000f080158015620004ca573d6000803e3d6000fd5b5090506000620004da8962000952565b905081600260008b73ffffffffffffffffffffffffffffffffffffffff1673ffffffffffffffffffffffffffffffffffffffff1681526020019081526020016000208260ff166005811015156200052d57fe5b0160006101000a81548173ffffffffffffffffffffffffffffffffffffffff021916908373ffffffffffffffffffffffffffffffffffffffff16021790555081925050509695505050505050565b600581565b338073ffffffffffffffffffffffffffffffffffffffff166000809054906101000a900473ffffffffffffffffffffffffffffffffffffffff1673ffffffffffffffffffffffffffffffffffffffff161415156200066c576040517f08c379a00000000000000000000000000000000000000000000000000000000081526004018080602001828103825260228152602001807f4163636573732064656e6965642e20436f6d70616e79206f776e6572206f6e6c81526020017f792e00000000000000000000000000000000000000000000000000000000000081525060400191505060405180910390fd5b816000806101000a81548173ffffffffffffffffffffffffffffffffffffffff021916908373ffffffffffffffffffffffffffffffffffffffff1602179055505050565b600381565b6000809054906101000a900473ffffffffffffffffffffffffffffffffffffffff1681565b6000620006e782620006ee565b9050919050565b6000620006fa62000b7f565b600160003373ffffffffffffffffffffffffffffffffffffffff1673ffffffffffffffffffffffffffffffffffffffff168152602001908152602001600020600380602002604051908101604052809291908260038015620007a8576020028201915b8160009054906101000a900473ffffffffffffffffffffffffffffffffffffffff1673ffffffffffffffffffffffffffffffffffffffff16815260200190600101908083116200075d575b5050505050905060008090505b600360ff168160ff161015620008de578373ffffffffffffffffffffffffffffffffffffffff16828260ff16600381101515620007ee57fe5b602002015173ffffffffffffffffffffffffffffffffffffffff161415620008d057818160ff166003811015156200082257fe5b602002015173ffffffffffffffffffffffffffffffffffffffff16638da5cb5b6040518163ffffffff167c010000000000000000000000000000000000000000000000000000000002815260040160206040518083038186803b1580156200088957600080fd5b505afa1580156200089e573d6000803e3d6000fd5b505050506040513d6020811015620008b557600080fd5b8101908080519060200190929190505050925050506200094d565b8080600101915050620007b5565b506040517f08c379a000000000000000000000000000000000000000000000000000000000815260040180806020018281038252601a8152602001807f436f6d70616e792061646472657373206e6f7420666f756e642e00000000000081525060200191505060405180910390fd5b919050565b60006200095f82620006ee565b73ffffffffffffffffffffffffffffffffffffffff163373ffffffffffffffffffffffffffffffffffffffff1614151562000a28576040517f08c379a00000000000000000000000000000000000000000000000000000000081526004018080602001828103825260298152602001807f4f6e6c7920636f6d70616e79206f776e65722063616e2073656172636820666f81526020017f7220746f6b656e732e000000000000000000000000000000000000000000000081525060400191505060405180910390fd5b62000a3262000ba2565b600260008473ffffffffffffffffffffffffffffffffffffffff1673ffffffffffffffffffffffffffffffffffffffff16815260200190815260200160002060058060200260405190810160405280929190826005801562000ae0576020028201915b8160009054906101000a900473ffffffffffffffffffffffffffffffffffffffff1673ffffffffffffffffffffffffffffffffffffffff168152602001906001019080831162000a95575b5050505050905060008090505b600560ff168160ff16101562000b6257600073ffffffffffffffffffffffffffffffffffffffff16828260ff1660058110151562000b2757fe5b602002015173ffffffffffffffffffffffffffffffffffffffff16141562000b5457809250505062000b69565b808060010191505062000aed565b5060059150505b919050565b60405161188d8062000bc683390190565b606060405190810160405280600390602082028038833980820191505090505090565b60a06040519081016040528060059060208202803883398082019150509050509056fe60806040523480156200001157600080fd5b506040516200188d3803806200188d833981018060405260a08110156200003757600080fd5b81019080805190602001909291908051906020019092919080516401000000008111156200006457600080fd5b828101905060208101848111156200007b57600080fd5b81518560018202830111640100000000821117156200009957600080fd5b50509291906020018051640100000000811115620000b657600080fd5b82810190506020810184811115620000cd57600080fd5b8151856001820283011164010000000082111715620000eb57600080fd5b50509291906020018051906020019092919050505082826000336000806101000a81548173ffffffffffffffffffffffffffffffffffffffff021916908373ffffffffffffffffffffffffffffffffffffffff16021790555082600490805190602001906200015c92919062000415565b5081600590805190602001906200017592919062000415565b5080600660006101000a81548160ff021916908360ff160217905550505050836000806101000a81548173ffffffffffffffffffffffffffffffffffffffff021916908373ffffffffffffffffffffffffffffffffffffffff16021790555033600660016101000a81548173ffffffffffffffffffffffffffffffffffffffff021916908373ffffffffffffffffffffffffffffffffffffffff16021790555084600760006101000a81548173ffffffffffffffffffffffffffffffffffffffff021916908373ffffffffffffffffffffffffffffffffffffffff1602179055506200027184826200027c640100000000026401000000009004565b5050505050620004c4565b600073ffffffffffffffffffffffffffffffffffffffff168273ffffffffffffffffffffffffffffffffffffffff1614151515620002b957600080fd5b620002de81600354620003f3640100000000026200136c179091906401000000009004565b6003819055506200034681600160008573ffffffffffffffffffffffffffffffffffffffff1673ffffffffffffffffffffffffffffffffffffffff16815260200190815260200160002054620003f3640100000000026200136c179091906401000000009004565b600160008473ffffffffffffffffffffffffffffffffffffffff1673ffffffffffffffffffffffffffffffffffffffff168152602001908152602001600020819055508173ffffffffffffffffffffffffffffffffffffffff16600073ffffffffffffffffffffffffffffffffffffffff167fddf252ad1be2c89b69c2b068fc378daa952ba7f163c4a11628f55a4df523b3ef836040518082815260200191505060405180910390a35050565b60008082840190508381101515156200040b57600080fd5b8091505092915050565b828054600181600116156101000203166002900490600052602060002090601f016020900481019282601f106200045857805160ff191683800117855562000489565b8280016001018555821562000489579182015b82811115620004885782518255916020019190600101906200046b565b5b5090506200049891906200049c565b5090565b620004c191905b80821115620004bd576000816000905550600101620004a3565b5090565b90565b6113b980620004d46000396000f3fe6080604052600436106100c5576000357c0100000000000000000000000000000000000000000000000000000000900463ffffffff16806306fdde03146100ca578063095ea7b31461015a57806318160ddd146101cd57806323b872dd146101f8578063313ce5671461028b57806339509351146102bc57806340cb34621461032f57806370a08231146103805780638da5cb5b146103e557806395d89b411461043c578063a457c2d7146104cc578063a9059cbb1461053f578063dd62ed3e146105b2575b600080fd5b3480156100d657600080fd5b506100df610637565b6040518080602001828103825283818151815260200191508051906020019080838360005b8381101561011f578082015181840152602081019050610104565b50505050905090810190601f16801561014c5780820380516001836020036101000a031916815260200191505b509250505060405180910390f35b34801561016657600080fd5b506101b36004803603604081101561017d57600080fd5b81019080803573ffffffffffffffffffffffffffffffffffffffff169060200190929190803590602001909291905050506106d9565b604051808215151515815260200191505060405180910390f35b3480156101d957600080fd5b506101e2610806565b6040518082815260200191505060405180910390f35b34801561020457600080fd5b506102716004803603606081101561021b57600080fd5b81019080803573ffffffffffffffffffffffffffffffffffffffff169060200190929190803573ffffffffffffffffffffffffffffffffffffffff16906020019092919080359060200190929190505050610810565b604051808215151515815260200191505060405180910390f35b34801561029757600080fd5b506102a0610a18565b604051808260ff1660ff16815260200191505060405180910390f35b3480156102c857600080fd5b50610315600480360360408110156102df57600080fd5b81019080803573ffffffffffffffffffffffffffffffffffffffff16906020019092919080359060200190929190505050610a2f565b604051808215151515815260200191505060405180910390f35b34801561033b57600080fd5b5061037e6004803603602081101561035257600080fd5b81019080803573ffffffffffffffffffffffffffffffffffffffff169060200190929190505050610c66565b005b34801561038c57600080fd5b506103cf600480360360208110156103a357600080fd5b81019080803573ffffffffffffffffffffffffffffffffffffffff169060200190929190505050610d95565b6040518082815260200191505060405180910390f35b3480156103f157600080fd5b506103fa610dde565b604051808273ffffffffffffffffffffffffffffffffffffffff1673ffffffffffffffffffffffffffffffffffffffff16815260200191505060405180910390f35b34801561044857600080fd5b50610451610e03565b6040518080602001828103825283818151815260200191508051906020019080838360005b83811015610491578082015181840152602081019050610476565b50505050905090810190601f1680156104be5780820380516001836020036101000a031916815260200191505b509250505060405180910390f35b3480156104d857600080fd5b50610525600480360360408110156104ef57600080fd5b81019080803573ffffffffffffffffffffffffffffffffffffffff16906020019092919080359060200190929190505050610ea5565b604051808215151515815260200191505060405180910390f35b34801561054b57600080fd5b506105986004803603604081101561056257600080fd5b81019080803573ffffffffffffffffffffffffffffffffffffffff169060200190929190803590602001909291905050506110dc565b604051808215151515815260200191505060405180910390f35b3480156105be57600080fd5b50610621600480360360408110156105d557600080fd5b81019080803573ffffffffffffffffffffffffffffffffffffffff169060200190929190803573ffffffffffffffffffffffffffffffffffffffff1690602001909291905050506110f3565b6040518082815260200191505060405180910390f35b606060048054600181600116156101000203166002900480601f0160208091040260200160405190810160405280929190818152602001828054600181600116156101000203166002900480156106cf5780601f106106a4576101008083540402835291602001916106cf565b820191906000526020600020905b8154815290600101906020018083116106b257829003601f168201915b5050505050905090565b60008073ffffffffffffffffffffffffffffffffffffffff168373ffffffffffffffffffffffffffffffffffffffff161415151561071657600080fd5b81600260003373ffffffffffffffffffffffffffffffffffffffff1673ffffffffffffffffffffffffffffffffffffffff16815260200190815260200160002060008573ffffffffffffffffffffffffffffffffffffffff1673ffffffffffffffffffffffffffffffffffffffff168152602001908152602001600020819055508273ffffffffffffffffffffffffffffffffffffffff163373ffffffffffffffffffffffffffffffffffffffff167f8c5be1e5ebec7d5bd14f71427d1e84f3dd0314c0f7b2291e5b200ac8c7c3b925846040518082815260200191505060405180910390a36001905092915050565b6000600354905090565b60006108a182600260008773ffffffffffffffffffffffffffffffffffffffff1673ffffffffffffffffffffffffffffffffffffffff16815260200190815260200160002060003373ffffffffffffffffffffffffffffffffffffffff1673ffffffffffffffffffffffffffffffffffffffff1681526020019081526020016000205461117a90919063ffffffff16565b600260008673ffffffffffffffffffffffffffffffffffffffff1673ffffffffffffffffffffffffffffffffffffffff16815260200190815260200160002060003373ffffffffffffffffffffffffffffffffffffffff1673ffffffffffffffffffffffffffffffffffffffff1681526020019081526020016000208190555061092c84848461119c565b3373ffffffffffffffffffffffffffffffffffffffff168473ffffffffffffffffffffffffffffffffffffffff167f8c5be1e5ebec7d5bd14f71427d1e84f3dd0314c0f7b2291e5b200ac8c7c3b925600260008873ffffffffffffffffffffffffffffffffffffffff1673ffffffffffffffffffffffffffffffffffffffff16815260200190815260200160002060003373ffffffffffffffffffffffffffffffffffffffff1673ffffffffffffffffffffffffffffffffffffffff168152602001908152602001600020546040518082815260200191505060405180910390a3600190509392505050565b6000600660009054906101000a900460ff16905090565b60008073ffffffffffffffffffffffffffffffffffffffff168373ffffffffffffffffffffffffffffffffffffffff1614151515610a6c57600080fd5b610afb82600260003373ffffffffffffffffffffffffffffffffffffffff1673ffffffffffffffffffffffffffffffffffffffff16815260200190815260200160002060008673ffffffffffffffffffffffffffffffffffffffff1673ffffffffffffffffffffffffffffffffffffffff1681526020019081526020016000205461136c90919063ffffffff16565b600260003373ffffffffffffffffffffffffffffffffffffffff1673ffffffffffffffffffffffffffffffffffffffff16815260200190815260200160002060008573ffffffffffffffffffffffffffffffffffffffff1673ffffffffffffffffffffffffffffffffffffffff168152602001908152602001600020819055508273ffffffffffffffffffffffffffffffffffffffff163373ffffffffffffffffffffffffffffffffffffffff167f8c5be1e5ebec7d5bd14f71427d1e84f3dd0314c0f7b2291e5b200ac8c7c3b925600260003373ffffffffffffffffffffffffffffffffffffffff1673ffffffffffffffffffffffffffffffffffffffff16815260200190815260200160002060008773ffffffffffffffffffffffffffffffffffffffff1673ffffffffffffffffffffffffffffffffffffffff168152602001908152602001600020546040518082815260200191505060405180910390a36001905092915050565b338073ffffffffffffffffffffffffffffffffffffffff166000809054906101000a900473ffffffffffffffffffffffffffffffffffffffff1673ffffffffffffffffffffffffffffffffffffffff16141515610d51576040517f08c379a00000000000000000000000000000000000000000000000000000000081526004018080602001828103825260228152602001807f4163636573732064656e6965642e20436f6d70616e79206f776e6572206f6e6c81526020017f792e00000000000000000000000000000000000000000000000000000000000081525060400191505060405180910390fd5b816000806101000a81548173ffffffffffffffffffffffffffffffffffffffff021916908373ffffffffffffffffffffffffffffffffffffffff1602179055505050565b6000600160008373ffffffffffffffffffffffffffffffffffffffff1673ffffffffffffffffffffffffffffffffffffffff168152602001908152602001600020549050919050565b6000809054906101000a900473ffffffffffffffffffffffffffffffffffffffff1681565b606060058054600181600116156101000203166002900480601f016020809104026020016040519081016040528092919081815260200182805460018160011615610100020316600290048015610e9b5780601f10610e7057610100808354040283529160200191610e9b565b820191906000526020600020905b815481529060010190602001808311610e7e57829003601f168201915b5050505050905090565b60008073ffffffffffffffffffffffffffffffffffffffff168373ffffffffffffffffffffffffffffffffffffffff1614151515610ee257600080fd5b610f7182600260003373ffffffffffffffffffffffffffffffffffffffff1673ffffffffffffffffffffffffffffffffffffffff16815260200190815260200160002060008673ffffffffffffffffffffffffffffffffffffffff1673ffffffffffffffffffffffffffffffffffffffff1681526020019081526020016000205461117a90919063ffffffff16565b600260003373ffffffffffffffffffffffffffffffffffffffff1673ffffffffffffffffffffffffffffffffffffffff16815260200190815260200160002060008573ffffffffffffffffffffffffffffffffffffffff1673ffffffffffffffffffffffffffffffffffffffff168152602001908152602001600020819055508273ffffffffffffffffffffffffffffffffffffffff163373ffffffffffffffffffffffffffffffffffffffff167f8c5be1e5ebec7d5bd14f71427d1e84f3dd0314c0f7b2291e5b200ac8c7c3b925600260003373ffffffffffffffffffffffffffffffffffffffff1673ffffffffffffffffffffffffffffffffffffffff16815260200190815260200160002060008773ffffffffffffffffffffffffffffffffffffffff1673ffffffffffffffffffffffffffffffffffffffff168152602001908152602001600020546040518082815260200191505060405180910390a36001905092915050565b60006110e933848461119c565b6001905092915050565b6000600260008473ffffffffffffffffffffffffffffffffffffffff1673ffffffffffffffffffffffffffffffffffffffff16815260200190815260200160002060008373ffffffffffffffffffffffffffffffffffffffff1673ffffffffffffffffffffffffffffffffffffffff16815260200190815260200160002054905092915050565b600082821115151561118b57600080fd5b600082840390508091505092915050565b600073ffffffffffffffffffffffffffffffffffffffff168273ffffffffffffffffffffffffffffffffffffffff16141515156111d857600080fd5b61122a81600160008673ffffffffffffffffffffffffffffffffffffffff1673ffffffffffffffffffffffffffffffffffffffff1681526020019081526020016000205461117a90919063ffffffff16565b600160008573ffffffffffffffffffffffffffffffffffffffff1673ffffffffffffffffffffffffffffffffffffffff168152602001908152602001600020819055506112bf81600160008573ffffffffffffffffffffffffffffffffffffffff1673ffffffffffffffffffffffffffffffffffffffff1681526020019081526020016000205461136c90919063ffffffff16565b600160008473ffffffffffffffffffffffffffffffffffffffff1673ffffffffffffffffffffffffffffffffffffffff168152602001908152602001600020819055508173ffffffffffffffffffffffffffffffffffffffff168373ffffffffffffffffffffffffffffffffffffffff167fddf252ad1be2c89b69c2b068fc378daa952ba7f163c4a11628f55a4df523b3ef836040518082815260200191505060405180910390a3505050565b600080828401905083811015151561138357600080fd5b809150509291505056fea165627a7a72305820e3ea2c01f4229cb2f54a2b6436cace0346ca4964a3fe8223530814ed8159360b0029a165627a7a72305820b06f8ece2cef0b74f49f3f63adce1019b986e86658c0f8110f0217dd527ca7bd0029",
  "source": "pragma solidity ^0.5.0;\n\nimport \"./Owned.sol\";\nimport \"./BC.sol\";\nimport \"./KMToken.sol\";\nimport \"./Storage.sol\";\n\n\ncontract TokenFactory is Owned, Storage {\n   \n    \n    function createTokenForBCCompany(address _bcCompany, string calldata _name, string calldata _symbol, uint256 _initialAmount) \n        external\n        returns (KMToken)\n    {\n        require(msg.sender == findBCowner(_bcCompany)); // 2nd time checking correct ownership.\n        KMToken newToken = new KMToken(_bcCompany, msg.sender, _name, _symbol, _initialAmount);\n        uint8 nextPosition = nextTokenAvailablePosition(address(_bcCompany));\n        tokens[_bcCompany][nextPosition] = address(newToken);\n        return newToken;\n    }\n    \n\n    function findBCownerUtil(address aCompany)\n        external\n        view\n        returns (address)\n    {\n        return findBCowner(aCompany);\n    }\n\n    function findBCowner(address aCompany)\n        internal\n        view\n        returns (address)\n    {\n        address[MAX_OWNER_COMPANIES] memory ownerCompanies = companies[msg.sender];\n        for (uint8 i = 0; i < MAX_OWNER_COMPANIES; i++) {\n            if (ownerCompanies[i] == aCompany){\n                return BC(ownerCompanies[i]).owner();\n            }\n        }\n        revert(\"Company address not found.\");\n    }\n    \n    function nextTokenAvailablePosition(address aCompany)\n        internal\n        view\n        returns (uint8)\n    {\n        require(msg.sender == findBCowner(aCompany), \"Only company owner can search for tokens.\");\n        address[MAX_COMPANY_TOKENS] memory companyTokens = tokens[aCompany];\n        for (uint8 i = 0; i < MAX_COMPANY_TOKENS; i++) {\n            if (companyTokens[i] == EMPTY_ADDRESS){\n                return i; // first position available.\n            }\n        }\n       return MAX_COMPANY_TOKENS; // No empty spot available. \n    }\n\n    \n}\n",
  "sourcePath": "/home/juan/consensys/otherrepos/final-project-Juan-cc/kmp/contracts/TokenFactory.sol",
  "compiler": {
    "name": "solc",
    "version": "0.5.0+commit.1d4f565a.Emscripten.clang"
  },
  "schemaVersion": "3.0.0",
  "updatedAt": "2019-01-18T20:49:03.181Z",
  "devdoc": {
    "methods": {}
  },
  "userdoc": {
    "methods": {}
  }
}